{
  "contractName": "WolsukiCore",
  "abi": [
    {
      "constant": true,
      "inputs": [],
      "name": "totalPayments",
      "outputs": [
        {
          "name": "",
          "type": "uint256"
        }
      ],
      "payable": false,
      "stateMutability": "view",
      "type": "function"
    },
    {
      "constant": false,
      "inputs": [
        {
          "name": "myid",
          "type": "bytes32"
        },
        {
          "name": "result",
          "type": "string"
        }
      ],
      "name": "__callback",
      "outputs": [],
      "payable": false,
      "stateMutability": "nonpayable",
      "type": "function"
    },
    {
      "constant": false,
      "inputs": [
        {
          "name": "_queryId",
          "type": "bytes32"
        },
        {
          "name": "_result",
          "type": "string"
        },
        {
          "name": "_proof",
          "type": "bytes"
        }
      ],
      "name": "__callback",
      "outputs": [],
      "payable": false,
      "stateMutability": "nonpayable",
      "type": "function"
    },
    {
      "constant": false,
      "inputs": [
        {
          "name": "_externalId",
          "type": "string"
        },
        {
          "name": "_closedAt",
          "type": "uint256"
        },
        {
          "name": "_endedAt",
          "type": "uint256"
        }
      ],
      "name": "createFixture",
      "outputs": [
        {
          "name": "",
          "type": "uint256"
        }
      ],
      "payable": false,
      "stateMutability": "nonpayable",
      "type": "function"
    },
    {
      "constant": false,
      "inputs": [],
      "name": "withdrawPayments",
      "outputs": [],
      "payable": false,
      "stateMutability": "nonpayable",
      "type": "function"
    },
    {
      "constant": true,
      "inputs": [
        {
          "name": "",
          "type": "uint256"
        }
      ],
      "name": "fixtures",
      "outputs": [
        {
          "name": "closedAt",
          "type": "uint256"
        },
        {
          "name": "endedAt",
          "type": "uint256"
        },
        {
          "name": "externalId",
          "type": "string"
        },
        {
          "name": "status",
          "type": "uint8"
        },
        {
          "name": "ended",
          "type": "bool"
        }
      ],
      "payable": false,
      "stateMutability": "view",
      "type": "function"
    },
    {
      "constant": false,
      "inputs": [
        {
          "name": "_fixtureId",
          "type": "uint16"
        }
      ],
      "name": "endFixture",
      "outputs": [],
      "payable": true,
      "stateMutability": "payable",
      "type": "function"
    },
    {
      "constant": true,
      "inputs": [
        {
          "name": "_poolId",
          "type": "uint256"
        }
      ],
      "name": "queryPlayers",
      "outputs": [
        {
          "name": "",
          "type": "address[]"
        }
      ],
      "payable": false,
      "stateMutability": "view",
      "type": "function"
    },
    {
      "constant": true,
      "inputs": [
        {
          "name": "_poolId",
          "type": "uint256"
        },
        {
          "name": "_player",
          "type": "address"
        }
      ],
      "name": "queryBetClaimed",
      "outputs": [
        {
          "name": "",
          "type": "bool"
        }
      ],
      "payable": false,
      "stateMutability": "view",
      "type": "function"
    },
    {
      "constant": true,
      "inputs": [],
      "name": "owner",
      "outputs": [
        {
          "name": "",
          "type": "address"
        }
      ],
      "payable": false,
      "stateMutability": "view",
      "type": "function"
    },
    {
      "constant": true,
      "inputs": [
        {
          "name": "",
          "type": "uint256"
        }
      ],
      "name": "pools",
      "outputs": [
        {
          "name": "host",
          "type": "address"
        },
        {
          "name": "fixtureId",
          "type": "uint256"
        },
        {
          "name": "hostBet",
          "type": "uint256"
        },
        {
          "name": "maxTotal",
          "type": "uint256"
        },
        {
          "name": "total",
          "type": "uint256"
        },
        {
          "name": "unlikelyOutcome",
          "type": "uint8"
        }
      ],
      "payable": false,
      "stateMutability": "view",
      "type": "function"
    },
    {
      "constant": true,
      "inputs": [
        {
          "name": "",
          "type": "address"
        }
      ],
      "name": "payments",
      "outputs": [
        {
          "name": "",
          "type": "uint256"
        }
      ],
      "payable": false,
      "stateMutability": "view",
      "type": "function"
    },
    {
      "constant": true,
      "inputs": [
        {
          "name": "_poolId",
          "type": "uint256"
        },
        {
          "name": "_player",
          "type": "address"
        }
      ],
      "name": "queryBetValue",
      "outputs": [
        {
          "name": "",
          "type": "uint256"
        }
      ],
      "payable": false,
      "stateMutability": "view",
      "type": "function"
    },
    {
      "constant": false,
      "inputs": [
        {
          "name": "newOwner",
          "type": "address"
        }
      ],
      "name": "transferOwnership",
      "outputs": [],
      "payable": false,
      "stateMutability": "nonpayable",
      "type": "function"
    },
    {
      "inputs": [],
      "payable": true,
      "stateMutability": "payable",
      "type": "constructor"
    },
    {
      "anonymous": false,
      "inputs": [
        {
          "indexed": false,
          "name": "_poolId",
          "type": "uint256"
        },
        {
          "indexed": false,
          "name": "_player",
          "type": "address"
        },
        {
          "indexed": false,
          "name": "_value",
          "type": "uint256"
        }
      ],
      "name": "BetPlaced",
      "type": "event"
    },
    {
      "anonymous": false,
      "inputs": [
        {
          "indexed": false,
          "name": "_poolId",
          "type": "uint256"
        },
        {
          "indexed": false,
          "name": "_player",
          "type": "address"
        }
      ],
      "name": "RewardClaimed",
      "type": "event"
    },
    {
      "anonymous": false,
      "inputs": [
        {
          "indexed": false,
          "name": "_poolId",
          "type": "uint256"
        },
        {
          "indexed": false,
          "name": "_host",
          "type": "address"
        },
        {
          "indexed": false,
          "name": "_fixture",
          "type": "uint256"
        },
        {
          "indexed": false,
          "name": "_ratio",
          "type": "uint64"
        },
        {
          "indexed": false,
          "name": "_unlikelyOutcome",
          "type": "uint8"
        }
      ],
      "name": "PoolOpened",
      "type": "event"
    },
    {
      "anonymous": false,
      "inputs": [
        {
          "indexed": false,
          "name": "_fixtureId",
          "type": "uint256"
        }
      ],
      "name": "FixtureEnded",
      "type": "event"
    },
    {
      "anonymous": false,
      "inputs": [
        {
          "indexed": false,
          "name": "_fixtureId",
          "type": "uint256"
        }
      ],
      "name": "FixtureOpened",
      "type": "event"
    },
    {
      "anonymous": false,
      "inputs": [
        {
          "indexed": true,
          "name": "previousOwner",
          "type": "address"
        },
        {
          "indexed": true,
          "name": "newOwner",
          "type": "address"
        }
      ],
      "name": "OwnershipTransferred",
      "type": "event"
    },
    {
      "constant": true,
      "inputs": [
        {
          "name": "_poolId",
          "type": "uint256"
        },
        {
          "name": "_player",
          "type": "address"
        }
      ],
      "name": "won",
      "outputs": [
        {
          "name": "",
          "type": "bool"
        }
      ],
      "payable": false,
      "stateMutability": "view",
      "type": "function"
    },
    {
      "constant": false,
      "inputs": [
        {
          "name": "_poolId",
          "type": "uint256"
        }
      ],
      "name": "play",
      "outputs": [],
      "payable": true,
      "stateMutability": "payable",
      "type": "function"
    },
    {
      "constant": false,
      "inputs": [
        {
          "name": "_poolId",
          "type": "uint256"
        }
      ],
      "name": "claim",
      "outputs": [],
      "payable": false,
      "stateMutability": "nonpayable",
      "type": "function"
    },
    {
      "constant": false,
      "inputs": [
        {
          "name": "_fixtureId",
          "type": "uint256"
        },
        {
          "name": "_ratio",
          "type": "uint64"
        },
        {
          "name": "_unlikelyOutcome",
          "type": "uint8"
        }
      ],
      "name": "createPool",
      "outputs": [
        {
          "name": "",
          "type": "uint256"
        }
      ],
      "payable": true,
      "stateMutability": "payable",
      "type": "function"
    }
  ],
  "bytecode": "0x6080604052336000806101000a81548173ffffffffffffffffffffffffffffffffffffffff021916908373ffffffffffffffffffffffffffffffffffffffff1602179055506200008160307f01000000000000000000000000000000000000000000000000000000000000000262000087640100000000026401000000009004565b62000a96565b6000600560009054906101000a900473ffffffffffffffffffffffffffffffffffffffff1673ffffffffffffffffffffffffffffffffffffffff1614806200010a5750600062000108600560009054906101000a900473ffffffffffffffffffffffffffffffffffffffff166200043f640100000000026401000000009004565b145b156200012d576200012b60006200044a640100000000026401000000009004565b505b600560009054906101000a900473ffffffffffffffffffffffffffffffffffffffff1673ffffffffffffffffffffffffffffffffffffffff166338cc48316040518163ffffffff167c0100000000000000000000000000000000000000000000000000000000028152600401602060405180830381600087803b158015620001b457600080fd5b505af1158015620001c9573d6000803e3d6000fd5b505050506040513d6020811015620001e057600080fd5b810190808051906020019092919050505073ffffffffffffffffffffffffffffffffffffffff16600660009054906101000a900473ffffffffffffffffffffffffffffffffffffffff1673ffffffffffffffffffffffffffffffffffffffff161415156200034d57600560009054906101000a900473ffffffffffffffffffffffffffffffffffffffff1673ffffffffffffffffffffffffffffffffffffffff166338cc48316040518163ffffffff167c0100000000000000000000000000000000000000000000000000000000028152600401602060405180830381600087803b158015620002cf57600080fd5b505af1158015620002e4573d6000803e3d6000fd5b505050506040513d6020811015620002fb57600080fd5b8101908080519060200190929190505050600660006101000a81548173ffffffffffffffffffffffffffffffffffffffff021916908373ffffffffffffffffffffffffffffffffffffffff1602179055505b600660009054906101000a900473ffffffffffffffffffffffffffffffffffffffff1673ffffffffffffffffffffffffffffffffffffffff1663688dcfd7826040518263ffffffff167c010000000000000000000000000000000000000000000000000000000002815260040180827effffffffffffffffffffffffffffffffffffffffffffffffffffffffffffff19167effffffffffffffffffffffffffffffffffffffffffffffffffffffffffffff19168152602001915050600060405180830381600087803b1580156200042357600080fd5b505af115801562000438573d6000803e3d6000fd5b5050505050565b6000813b9050919050565b6000620004656200046c640100000000026401000000009004565b9050919050565b6000806200049d731d3b2638a7cc9f2cb3d298a3da7a90b67e5506ed6200043f640100000000026401000000009004565b11156200055257731d3b2638a7cc9f2cb3d298a3da7a90b67e5506ed600560006101000a81548173ffffffffffffffffffffffffffffffffffffffff021916908373ffffffffffffffffffffffffffffffffffffffff160217905550620005486040805190810160405280600b81526020017f6574685f6d61696e6e6574000000000000000000000000000000000000000000815250620009cb640100000000026401000000009004565b60019050620009c8565b60006200058273c03a2615d5efaf5f49f60b7bb6583eaec212fdf16200043f640100000000026401000000009004565b1115620006375773c03a2615d5efaf5f49f60b7bb6583eaec212fdf1600560006101000a81548173ffffffffffffffffffffffffffffffffffffffff021916908373ffffffffffffffffffffffffffffffffffffffff1602179055506200062d6040805190810160405280600c81526020017f6574685f726f707374656e330000000000000000000000000000000000000000815250620009cb640100000000026401000000009004565b60019050620009c8565b60006200066773b7a07bcf2ba2f2703b24c0691b5278999c59ac7e6200043f640100000000026401000000009004565b11156200071c5773b7a07bcf2ba2f2703b24c0691b5278999c59ac7e600560006101000a81548173ffffffffffffffffffffffffffffffffffffffff021916908373ffffffffffffffffffffffffffffffffffffffff160217905550620007126040805190810160405280600981526020017f6574685f6b6f76616e0000000000000000000000000000000000000000000000815250620009cb640100000000026401000000009004565b60019050620009c8565b60006200074c73146500cfd35b22e4a392fe0adc06de1a1368ed486200043f640100000000026401000000009004565b1115620008015773146500cfd35b22e4a392fe0adc06de1a1368ed48600560006101000a81548173ffffffffffffffffffffffffffffffffffffffff021916908373ffffffffffffffffffffffffffffffffffffffff160217905550620007f76040805190810160405280600b81526020017f6574685f72696e6b656279000000000000000000000000000000000000000000815250620009cb640100000000026401000000009004565b60019050620009c8565b600062000831736f485c8bf6fc43ea212e93bbf8ce046c7f1cb4756200043f640100000000026401000000009004565b11156200089757736f485c8bf6fc43ea212e93bbf8ce046c7f1cb475600560006101000a81548173ffffffffffffffffffffffffffffffffffffffff021916908373ffffffffffffffffffffffffffffffffffffffff16021790555060019050620009c8565b6000620008c77320e12a1f859b3feae5fb2a0a32c18f5a65555bbf6200043f640100000000026401000000009004565b11156200092d577320e12a1f859b3feae5fb2a0a32c18f5a65555bbf600560006101000a81548173ffffffffffffffffffffffffffffffffffffffff021916908373ffffffffffffffffffffffffffffffffffffffff16021790555060019050620009c8565b60006200095d7351efaf4c8b3c9afbd5ab9f4bbc82784ab6ef8faa6200043f640100000000026401000000009004565b1115620009c3577351efaf4c8b3c9afbd5ab9f4bbc82784ab6ef8faa600560006101000a81548173ffffffffffffffffffffffffffffffffffffffff021916908373ffffffffffffffffffffffffffffffffffffffff16021790555060019050620009c8565b600090505b90565b8060079080519060200190620009e3929190620009e7565b5050565b828054600181600116156101000203166002900490600052602060002090601f016020900481019282601f1062000a2a57805160ff191683800117855562000a5b565b8280016001018555821562000a5b579182015b8281111562000a5a57825182559160200191906001019062000a3d565b5b50905062000a6a919062000a6e565b5090565b62000a9391905b8082111562000a8f57600081600090555060010162000a75565b5090565b90565b61344d8062000aa66000396000f3006080604052600436106100fb576000357c0100000000000000000000000000000000000000000000000000000000900463ffffffff1680625b44871461010057806327dc297e1461012b578063379607f5146101a257806338bbfa50146101cf5780634a6ae72f1461028c5780636103d70b1461031d57806367bfef67146103345780636898f82b14610400578063698c3332146104205780637cbdc001146104445780638790af3e146104c65780638da5cb5b1461052b578063a57972d214610582578063ac4afa38146105d7578063c229d2f01461066d578063e2982c21146106d2578063e6bae1ec14610729578063f2fde38b1461078a575b600080fd5b34801561010c57600080fd5b506101156107cd565b6040518082815260200191505060405180910390f35b34801561013757600080fd5b506101a06004803603810190808035600019169060200190929190803590602001908201803590602001908080601f01602080910402602001604051908101604052809392919081815260200183838082843782019150505050505091929192905050506107d3565b005b3480156101ae57600080fd5b506101cd60048036038101908080359060200190929190505050610816565b005b3480156101db57600080fd5b5061028a6004803603810190808035600019169060200190929190803590602001908201803590602001908080601f0160208091040260200160405190810160405280939291908181526020018383808284378201915050505050509192919290803590602001908201803590602001908080601f0160208091040260200160405190810160405280939291908181526020018383808284378201915050505050509192919290505050610baa565b005b34801561029857600080fd5b50610307600480360381019080803590602001908201803590602001908080601f01602080910402602001604051908101604052809392919081815260200183838082843782019150505050505091929192908035906020019092919080359060200190929190505050610ce8565b6040518082815260200191505060405180910390f35b34801561032957600080fd5b50610332610e78565b005b34801561034057600080fd5b5061035f60048036038101908080359060200190929190505050610f97565b60405180868152602001858152602001806020018460ff1660ff16815260200183151515158152602001828103825285818151815260200191508051906020019080838360005b838110156103c15780820151818401526020810190506103a6565b50505050905090810190601f1680156103ee5780820380516001836020036101000a031916815260200191505b50965050505050505060405180910390f35b61041e6004803603810190808035906020019092919050505061108e565b005b610442600480360381019080803561ffff16906020019092919050505061132e565b005b34801561045057600080fd5b5061046f6004803603810190808035906020019092919050505061145f565b6040518080602001828103825283818151815260200191508051906020019060200280838360005b838110156104b2578082015181840152602081019050610497565b505050509050019250505060405180910390f35b3480156104d257600080fd5b5061051160048036038101908080359060200190929190803573ffffffffffffffffffffffffffffffffffffffff169060200190929190505050611513565b604051808215151515815260200191505060405180910390f35b34801561053757600080fd5b5061054061158d565b604051808273ffffffffffffffffffffffffffffffffffffffff1673ffffffffffffffffffffffffffffffffffffffff16815260200191505060405180910390f35b6105c160048036038101908080359060200190929190803567ffffffffffffffff169060200190929190803560ff1690602001909291905050506115b2565b6040518082815260200191505060405180910390f35b3480156105e357600080fd5b50610602600480360381019080803590602001909291905050506118b1565b604051808773ffffffffffffffffffffffffffffffffffffffff1673ffffffffffffffffffffffffffffffffffffffff1681526020018681526020018581526020018481526020018381526020018260ff1660ff168152602001965050505050505060405180910390f35b34801561067957600080fd5b506106b860048036038101908080359060200190929190803573ffffffffffffffffffffffffffffffffffffffff169060200190929190505050611929565b604051808215151515815260200191505060405180910390f35b3480156106de57600080fd5b50610713600480360381019080803573ffffffffffffffffffffffffffffffffffffffff169060200190929190505050611aba565b6040518082815260200191505060405180910390f35b34801561073557600080fd5b5061077460048036038101908080359060200190929190803573ffffffffffffffffffffffffffffffffffffffff169060200190929190505050611ad2565b6040518082815260200191505060405180910390f35b34801561079657600080fd5b506107cb600480360381019080803573ffffffffffffffffffffffffffffffffffffffff169060200190929190505050611ba4565b005b60025481565b610812828260006040519080825280601f01601f19166020018201604052801561080c5781602001602082028038833980820191505090505b50610baa565b5050565b600080600080600080600060048881548110151561083057fe5b906000526020600020906009020196506003876004015481548110151561085357fe5b906000526020600020906004020195508560030160019054906101000a900460ff1680156108cd57508660010160003373ffffffffffffffffffffffffffffffffffffffff1673ffffffffffffffffffffffffffffffffffffffff16815260200190815260200160002060009054906101000a900460ff16155b15156108d857600080fd5b60018760010160003373ffffffffffffffffffffffffffffffffffffffff1673ffffffffffffffffffffffffffffffffffffffff16815260200190815260200160002060006101000a81548160ff0219169083151502179055503373ffffffffffffffffffffffffffffffffffffffff168760030160009054906101000a900473ffffffffffffffffffffffffffffffffffffffff1673ffffffffffffffffffffffffffffffffffffffff161415610a33578560030160009054906101000a900460ff1660ff168760080160009054906101000a900460ff1660ff161415156109e7576109d687600701548860050154611cf990919063ffffffff16565b94506109e23386611d17565b610a2e565b610a188760060154610a0a89600701548a60050154611dcb90919063ffffffff16565b611dfe90919063ffffffff16565b9350838760050154039250610a2d3384611d17565b5b610b35565b8560030160009054906101000a900460ff1660ff168760080160009054906101000a900460ff1660ff161415610b3457610ad18760060154610ac389600601548a60000160003373ffffffffffffffffffffffffffffffffffffffff1673ffffffffffffffffffffffffffffffffffffffff16815260200190815260200160002054611dcb90919063ffffffff16565b611dfe90919063ffffffff16565b9150610b27828860000160003373ffffffffffffffffffffffffffffffffffffffff1673ffffffffffffffffffffffffffffffffffffffff16815260200190815260200160002054611cf990919063ffffffff16565b9050610b333382611d17565b5b5b7f5dd59f4285b36241394b73f8f7ae03d0290b030a86803cf2562ecf33eeb617bd8833604051808381526020018273ffffffffffffffffffffffffffffffffffffffff1673ffffffffffffffffffffffffffffffffffffffff1681526020019250505060405180910390a15050505050505050565b600080610bb5611e19565b73ffffffffffffffffffffffffffffffffffffffff163373ffffffffffffffffffffffffffffffffffffffff16141515610bee57600080fd5b600a60008660001916600019168152602001908152602001600020549150600382815481101515610c1b57fe5b906000526020600020906004020190508060030160019054906101000a900460ff16151515610c4957600080fd5b60018160030160016101000a81548160ff021916908315150217905550610c6f8461217b565b8160030160006101000a81548160ff021916908360ff160217905550600a60008660001916600019168152602001908152602001600020600090557f94105dd09727d6726633174a89902a6e8e596175785de861ca3db2ce351e626f826040518082815260200191505060405180910390a15050505050565b6000610cf261311e565b60008060009054906101000a900473ffffffffffffffffffffffffffffffffffffffff1673ffffffffffffffffffffffffffffffffffffffff163373ffffffffffffffffffffffffffffffffffffffff16141515610d4f57600080fd5b8484111515610d5d57600080fd5b60a060405190810160405280868152602001858152602001878152602001600060ff16815260200160001515815250915060016003839080600181540180825580915050906001820390600052602060002090600402016000909192909190915060008201518160000155602082015181600101556040820151816002019080519060200190610dee929190613153565b5060608201518160030160006101000a81548160ff021916908360ff16021790555060808201518160030160016101000a81548160ff02191690831515021790555050500390507f8d293449f88091e84b3c37081ea356981776b935bf4b118c7a7126a2782c76a8816040518082815260200191505060405180910390a180925050509392505050565b600080339150600160008373ffffffffffffffffffffffffffffffffffffffff1673ffffffffffffffffffffffffffffffffffffffff16815260200190815260200160002054905060008114151515610ed057600080fd5b803073ffffffffffffffffffffffffffffffffffffffff163110151515610ef657600080fd5b610f0b8160025461269390919063ffffffff16565b6002819055506000600160008473ffffffffffffffffffffffffffffffffffffffff1673ffffffffffffffffffffffffffffffffffffffff168152602001908152602001600020819055508173ffffffffffffffffffffffffffffffffffffffff166108fc829081150290604051600060405180830381858888f193505050501515610f9357fe5b5050565b600381815481101515610fa657fe5b9060005260206000209060040201600091509050806000015490806001015490806002018054600181600116156101000203166002900480601f01602080910402602001604051908101604052809291908181526020018280546001816001161561010002031660029004801561105e5780601f106110335761010080835404028352916020019161105e565b820191906000526020600020905b81548152906001019060200180831161104157829003601f168201915b5050505050908060030160009054906101000a900460ff16908060030160019054906101000a900460ff16905085565b600080600066038d7ea4c68000341180156110b1575068056bc75e2d6310000034105b15156110bc57600080fd5b6004848154811015156110cb57fe5b90600052602060002090600902019250600383600401548154811015156110ee57fe5b9060005260206000209060040201915081600001544211801561116157508260030160009054906101000a900473ffffffffffffffffffffffffffffffffffffffff1673ffffffffffffffffffffffffffffffffffffffff163373ffffffffffffffffffffffffffffffffffffffff1614155b151561116c57600080fd5b8260060154611188348560070154611cf990919063ffffffff16565b1115151561119557600080fd5b8260000160003373ffffffffffffffffffffffffffffffffffffffff1673ffffffffffffffffffffffffffffffffffffffff1681526020019081526020016000205490506000811415156111e857600080fd5b348360000160003373ffffffffffffffffffffffffffffffffffffffff1673ffffffffffffffffffffffffffffffffffffffff16815260200190815260200160002081905550826002013390806001815401808255809150509060018203906000526020600020016000909192909190916101000a81548173ffffffffffffffffffffffffffffffffffffffff021916908373ffffffffffffffffffffffffffffffffffffffff160217905550506112ad348460070154611cf990919063ffffffff16565b83600701819055507f87b9df6fa7123c2e6044c3a3a37b4b0662c188d7a58ef86ee55067c46e4613ad843334604051808481526020018373ffffffffffffffffffffffffffffffffffffffff1673ffffffffffffffffffffffffffffffffffffffff168152602001828152602001935050505060405180910390a150505050565b6000806000809054906101000a900473ffffffffffffffffffffffffffffffffffffffff1673ffffffffffffffffffffffffffffffffffffffff163373ffffffffffffffffffffffffffffffffffffffff1614151561138c57600080fd5b60038361ffff1681548110151561139f57fe5b906000526020600020906004020191508160030160019054906101000a900460ff161580156113d15750816001015442115b15156113dc57600080fd5b6114346040805190810160405280600381526020017f55524c000000000000000000000000000000000000000000000000000000000081525060c0604051908101604052806085815260200161339d608591396126ac565b90508261ffff16600a6000836000191660001916815260200190815260200160002081905550505050565b6060600060048381548110151561147257fe5b906000526020600020906009020190508060020180548060200260200160405190810160405280929190818152602001828054801561150657602002820191906000526020600020905b8160009054906101000a900473ffffffffffffffffffffffffffffffffffffffff1673ffffffffffffffffffffffffffffffffffffffff16815260200190600101908083116114bc575b5050505050915050919050565b60008060048481548110151561152557fe5b906000526020600020906009020190508060010160008473ffffffffffffffffffffffffffffffffffffffff1673ffffffffffffffffffffffffffffffffffffffff16815260200190815260200160002060009054906101000a900460ff1691505092915050565b6000809054906101000a900473ffffffffffffffffffffffffffffffffffffffff1681565b60008060006115bf6131d3565b600066038d7ea4c68000341180156115df575068056bc75e2d6310000034105b15156115ea57600080fd5b858060ff16600111158015611603575060038160ff1611155b151561160e57600080fd5b8767ffffffffffffffff1660011115801561163557506127108867ffffffffffffffff1611155b151561164057600080fd5b60038981548110151561164f57fe5b9060005260206000209060040201945084600001544211151561167157600080fd5b6116a160646116938a67ffffffffffffffff1634611dcb90919063ffffffff16565b611dfe90919063ffffffff16565b935060e06040519081016040528060006040519080825280602002602001820160405280156116df5781602001602082028038833980820191505090505b5081526020013373ffffffffffffffffffffffffffffffffffffffff1681526020018a8152602001348152602001858152602001600081526020018860ff168152509250600160048490806001815401808255809150509060018203906000526020600020906009020160009091929091909150600082015181600201908051906020019061176f92919061322a565b5060208201518160030160006101000a81548173ffffffffffffffffffffffffffffffffffffffff021916908373ffffffffffffffffffffffffffffffffffffffff16021790555060408201518160040155606082015181600501556080820151816006015560a0820151816007015560c08201518160080160006101000a81548160ff021916908360ff16021790555050500391507f900ba4872511cdb53abd138ba303984662ad45e1e6fd907db9d98211400e689e82338b8b8b604051808681526020018573ffffffffffffffffffffffffffffffffffffffff1673ffffffffffffffffffffffffffffffffffffffff1681526020018481526020018367ffffffffffffffff1667ffffffffffffffff1681526020018260ff1660ff1681526020019550505050505060405180910390a181955050505050509392505050565b6004818154811015156118c057fe5b90600052602060002090600902016000915090508060030160009054906101000a900473ffffffffffffffffffffffffffffffffffffffff16908060040154908060050154908060060154908060070154908060080160009054906101000a900460ff16905086565b600080600060048581548110151561193d57fe5b906000526020600020906009020191506003826004015481548110151561196057fe5b906000526020600020906004020190508060030160019054906101000a900460ff1615156119915760009250611ab2565b8160030160009054906101000a900473ffffffffffffffffffffffffffffffffffffffff1673ffffffffffffffffffffffffffffffffffffffff168473ffffffffffffffffffffffffffffffffffffffff161415611a28578060030160009054906101000a900460ff1660ff168260080160009054906101000a900460ff1660ff16141515611a235760019250611ab2565b611aad565b8060030160009054906101000a900460ff1660ff168260080160009054906101000a900460ff1660ff161415611aac5760008260000160008673ffffffffffffffffffffffffffffffffffffffff1673ffffffffffffffffffffffffffffffffffffffff168152602001908152602001600020541115611aab5760019250611ab2565b5b5b600092505b505092915050565b60016020528060005260406000206000915090505481565b600080600484815481101515611ae457fe5b906000526020600020906009020190508060030160009054906101000a900473ffffffffffffffffffffffffffffffffffffffff1673ffffffffffffffffffffffffffffffffffffffff168373ffffffffffffffffffffffffffffffffffffffff161415611b585780600501549150611b9d565b8060000160008473ffffffffffffffffffffffffffffffffffffffff1673ffffffffffffffffffffffffffffffffffffffff1681526020019081526020016000205491505b5092915050565b6000809054906101000a900473ffffffffffffffffffffffffffffffffffffffff1673ffffffffffffffffffffffffffffffffffffffff163373ffffffffffffffffffffffffffffffffffffffff16141515611bff57600080fd5b600073ffffffffffffffffffffffffffffffffffffffff168173ffffffffffffffffffffffffffffffffffffffff1614151515611c3b57600080fd5b8073ffffffffffffffffffffffffffffffffffffffff166000809054906101000a900473ffffffffffffffffffffffffffffffffffffffff1673ffffffffffffffffffffffffffffffffffffffff167f8be0079c531659141344cd1fd0a4f28419497f9722a3daafe3b4186f6b6457e060405160405180910390a3806000806101000a81548173ffffffffffffffffffffffffffffffffffffffff021916908373ffffffffffffffffffffffffffffffffffffffff16021790555050565b6000808284019050838110151515611d0d57fe5b8091505092915050565b611d6981600160008573ffffffffffffffffffffffffffffffffffffffff1673ffffffffffffffffffffffffffffffffffffffff16815260200190815260200160002054611cf990919063ffffffff16565b600160008473ffffffffffffffffffffffffffffffffffffffff1673ffffffffffffffffffffffffffffffffffffffff16815260200190815260200160002081905550611dc181600254611cf990919063ffffffff16565b6002819055505050565b60008082840290506000841480611dec5750828482811515611de957fe5b04145b1515611df457fe5b8091505092915050565b6000808284811515611e0c57fe5b0490508091505092915050565b600080600560009054906101000a900473ffffffffffffffffffffffffffffffffffffffff1673ffffffffffffffffffffffffffffffffffffffff161480611e8b57506000611e89600560009054906101000a900473ffffffffffffffffffffffffffffffffffffffff16612c52565b145b15611e9c57611e9a6000612c5d565b505b600560009054906101000a900473ffffffffffffffffffffffffffffffffffffffff1673ffffffffffffffffffffffffffffffffffffffff166338cc48316040518163ffffffff167c0100000000000000000000000000000000000000000000000000000000028152600401602060405180830381600087803b158015611f2257600080fd5b505af1158015611f36573d6000803e3d6000fd5b505050506040513d6020811015611f4c57600080fd5b810190808051906020019092919050505073ffffffffffffffffffffffffffffffffffffffff16600660009054906101000a900473ffffffffffffffffffffffffffffffffffffffff1673ffffffffffffffffffffffffffffffffffffffff161415156120b557600560009054906101000a900473ffffffffffffffffffffffffffffffffffffffff1673ffffffffffffffffffffffffffffffffffffffff166338cc48316040518163ffffffff167c0100000000000000000000000000000000000000000000000000000000028152600401602060405180830381600087803b15801561203957600080fd5b505af115801561204d573d6000803e3d6000fd5b505050506040513d602081101561206357600080fd5b8101908080519060200190929190505050600660006101000a81548173ffffffffffffffffffffffffffffffffffffffff021916908373ffffffffffffffffffffffffffffffffffffffff1602179055505b600660009054906101000a900473ffffffffffffffffffffffffffffffffffffffff1673ffffffffffffffffffffffffffffffffffffffff1663c281d19e6040518163ffffffff167c0100000000000000000000000000000000000000000000000000000000028152600401602060405180830381600087803b15801561213b57600080fd5b505af115801561214f573d6000803e3d6000fd5b505050506040513d602081101561216557600080fd5b8101908080519060200190929190505050905090565b6000606080606060008060008088965060026040519080825280602002602001820160405280156121bb5781602001602082028038833980820191505090505b50955060026040519080825280602002602001820160405280156121ee5781602001602082028038833980820191505090505b509450600093506000925060009150868260ff1681518110151561220e57fe5b9060200101517f010000000000000000000000000000000000000000000000000000000000000090047f01000000000000000000000000000000000000000000000000000000000000000290505b7f2d00000000000000000000000000000000000000000000000000000000000000817effffffffffffffffffffffffffffffffffffffffffffffffffffffffffffff19161415156123805780868560ff168151811015156122b957fe5b906020019060200201907effffffffffffffffffffffffffffffffffffffffffffffffffffffffffffff191690817effffffffffffffffffffffffffffffffffffffffffffffffffffffffffffff19168152505083806001019450508180600101925050868260ff1681518110151561232e57fe5b9060200101517f010000000000000000000000000000000000000000000000000000000000000090047f010000000000000000000000000000000000000000000000000000000000000002905061225c565b81806001019250505b86518260ff16101561246e57868260ff168151811015156123a657fe5b9060200101517f010000000000000000000000000000000000000000000000000000000000000090047f010000000000000000000000000000000000000000000000000000000000000002905080858460ff1681518110151561240557fe5b906020019060200201907effffffffffffffffffffffffffffffffffffffffffffffffffffffffffffff191690817effffffffffffffffffffffffffffffffffffffffffffffffffffffffffffff19168152505082806001019350508180600101925050612389565b84600181518110151561247d57fe5b906020019060200201517effffffffffffffffffffffffffffffffffffffffffffffffffffffffffffff19168660018151811015156124b857fe5b906020019060200201517effffffffffffffffffffffffffffffffffffffffffffffffffffffffffffff191611156124f35760019750612687565b84600181518110151561250257fe5b906020019060200201517effffffffffffffffffffffffffffffffffffffffffffffffffffffffffffff191686600181518110151561253d57fe5b906020019060200201517effffffffffffffffffffffffffffffffffffffffffffffffffffffffffffff191610156125785760029750612687565b84600081518110151561258757fe5b906020019060200201517effffffffffffffffffffffffffffffffffffffffffffffffffffffffffffff19168660008151811015156125c257fe5b906020019060200201517effffffffffffffffffffffffffffffffffffffffffffffffffffffffffffff191611156125fd5760019750612687565b84600081518110151561260c57fe5b906020019060200201517effffffffffffffffffffffffffffffffffffffffffffffffffffffffffffff191686600081518110151561264757fe5b906020019060200201517effffffffffffffffffffffffffffffffffffffffffffffffffffffffffffff191610156126825760029750612687565b600397505b50505050505050919050565b60008282111515156126a157fe5b818303905092915050565b6000806000600560009054906101000a900473ffffffffffffffffffffffffffffffffffffffff1673ffffffffffffffffffffffffffffffffffffffff1614806127205750600061271e600560009054906101000a900473ffffffffffffffffffffffffffffffffffffffff16612c52565b145b156127315761272f6000612c5d565b505b600560009054906101000a900473ffffffffffffffffffffffffffffffffffffffff1673ffffffffffffffffffffffffffffffffffffffff166338cc48316040518163ffffffff167c0100000000000000000000000000000000000000000000000000000000028152600401602060405180830381600087803b1580156127b757600080fd5b505af11580156127cb573d6000803e3d6000fd5b505050506040513d60208110156127e157600080fd5b810190808051906020019092919050505073ffffffffffffffffffffffffffffffffffffffff16600660009054906101000a900473ffffffffffffffffffffffffffffffffffffffff1673ffffffffffffffffffffffffffffffffffffffff1614151561294a57600560009054906101000a900473ffffffffffffffffffffffffffffffffffffffff1673ffffffffffffffffffffffffffffffffffffffff166338cc48316040518163ffffffff167c0100000000000000000000000000000000000000000000000000000000028152600401602060405180830381600087803b1580156128ce57600080fd5b505af11580156128e2573d6000803e3d6000fd5b505050506040513d60208110156128f857600080fd5b8101908080519060200190929190505050600660006101000a81548173ffffffffffffffffffffffffffffffffffffffff021916908373ffffffffffffffffffffffffffffffffffffffff1602179055505b600660009054906101000a900473ffffffffffffffffffffffffffffffffffffffff1673ffffffffffffffffffffffffffffffffffffffff1663524f3889856040518263ffffffff167c01000000000000000000000000000000000000000000000000000000000281526004018080602001828103825283818151815260200191508051906020019080838360005b838110156129f45780820151818401526020810190506129d9565b50505050905090810190601f168015612a215780820380516001836020036101000a031916815260200191505b5092505050602060405180830381600087803b158015612a4057600080fd5b505af1158015612a54573d6000803e3d6000fd5b505050506040513d6020811015612a6a57600080fd5b8101908080519060200190929190505050905062030d403a02670de0b6b3a764000001811115612aa05760006001029150612c4b565b600660009054906101000a900473ffffffffffffffffffffffffffffffffffffffff1673ffffffffffffffffffffffffffffffffffffffff1663adf59f9982600087876040518563ffffffff167c0100000000000000000000000000000000000000000000000000000000028152600401808481526020018060200180602001838103835285818151815260200191508051906020019080838360005b83811015612b58578082015181840152602081019050612b3d565b50505050905090810190601f168015612b855780820380516001836020036101000a031916815260200191505b50838103825284818151815260200191508051906020019080838360005b83811015612bbe578082015181840152602081019050612ba3565b50505050905090810190601f168015612beb5780820380516001836020036101000a031916815260200191505b50955050505050506020604051808303818588803b158015612c0c57600080fd5b505af1158015612c20573d6000803e3d6000fd5b50505050506040513d6020811015612c3757600080fd5b810190808051906020019092919050505091505b5092915050565b6000813b9050919050565b6000612c67612c6e565b9050919050565b600080612c8e731d3b2638a7cc9f2cb3d298a3da7a90b67e5506ed612c52565b1115612d3057731d3b2638a7cc9f2cb3d298a3da7a90b67e5506ed600560006101000a81548173ffffffffffffffffffffffffffffffffffffffff021916908373ffffffffffffffffffffffffffffffffffffffff160217905550612d276040805190810160405280600b81526020017f6574685f6d61696e6e6574000000000000000000000000000000000000000000815250613104565b60019050613101565b6000612d4f73c03a2615d5efaf5f49f60b7bb6583eaec212fdf1612c52565b1115612df15773c03a2615d5efaf5f49f60b7bb6583eaec212fdf1600560006101000a81548173ffffffffffffffffffffffffffffffffffffffff021916908373ffffffffffffffffffffffffffffffffffffffff160217905550612de86040805190810160405280600c81526020017f6574685f726f707374656e330000000000000000000000000000000000000000815250613104565b60019050613101565b6000612e1073b7a07bcf2ba2f2703b24c0691b5278999c59ac7e612c52565b1115612eb25773b7a07bcf2ba2f2703b24c0691b5278999c59ac7e600560006101000a81548173ffffffffffffffffffffffffffffffffffffffff021916908373ffffffffffffffffffffffffffffffffffffffff160217905550612ea96040805190810160405280600981526020017f6574685f6b6f76616e0000000000000000000000000000000000000000000000815250613104565b60019050613101565b6000612ed173146500cfd35b22e4a392fe0adc06de1a1368ed48612c52565b1115612f735773146500cfd35b22e4a392fe0adc06de1a1368ed48600560006101000a81548173ffffffffffffffffffffffffffffffffffffffff021916908373ffffffffffffffffffffffffffffffffffffffff160217905550612f6a6040805190810160405280600b81526020017f6574685f72696e6b656279000000000000000000000000000000000000000000815250613104565b60019050613101565b6000612f92736f485c8bf6fc43ea212e93bbf8ce046c7f1cb475612c52565b1115612ff657736f485c8bf6fc43ea212e93bbf8ce046c7f1cb475600560006101000a81548173ffffffffffffffffffffffffffffffffffffffff021916908373ffffffffffffffffffffffffffffffffffffffff16021790555060019050613101565b60006130157320e12a1f859b3feae5fb2a0a32c18f5a65555bbf612c52565b1115613079577320e12a1f859b3feae5fb2a0a32c18f5a65555bbf600560006101000a81548173ffffffffffffffffffffffffffffffffffffffff021916908373ffffffffffffffffffffffffffffffffffffffff16021790555060019050613101565b60006130987351efaf4c8b3c9afbd5ab9f4bbc82784ab6ef8faa612c52565b11156130fc577351efaf4c8b3c9afbd5ab9f4bbc82784ab6ef8faa600560006101000a81548173ffffffffffffffffffffffffffffffffffffffff021916908373ffffffffffffffffffffffffffffffffffffffff16021790555060019050613101565b600090505b90565b806007908051906020019061311a9291906132b4565b5050565b60a060405190810160405280600081526020016000815260200160608152602001600060ff1681526020016000151581525090565b828054600181600116156101000203166002900490600052602060002090601f016020900481019282601f1061319457805160ff19168380011785556131c2565b828001600101855582156131c2579182015b828111156131c15782518255916020019190600101906131a6565b5b5090506131cf9190613334565b5090565b60e06040519081016040528060608152602001600073ffffffffffffffffffffffffffffffffffffffff16815260200160008152602001600081526020016000815260200160008152602001600060ff1681525090565b8280548282559060005260206000209081019282156132a3579160200282015b828111156132a25782518260006101000a81548173ffffffffffffffffffffffffffffffffffffffff021916908373ffffffffffffffffffffffffffffffffffffffff1602179055509160200191906001019061324a565b5b5090506132b09190613359565b5090565b828054600181600116156101000203166002900490600052602060002090601f016020900481019282601f106132f557805160ff1916838001178555613323565b82800160010185558215613323579182015b82811115613322578251825591602001919060010190613307565b5b5090506133309190613334565b5090565b61335691905b8082111561335257600081600090555060010161333a565b5090565b90565b61339991905b8082111561339557600081816101000a81549073ffffffffffffffffffffffffffffffffffffffff02191690555060010161335f565b5090565b90560068746d6c28687474703a2f2f7777772e666966612e636f6d2f776f726c646375702f6d6174636865732f726f756e643d3235353933312f6d617463683d3330303138363435362f696e6465782e68746d6c292e7870617468282f2f2a5b636f6e7461696e732840636c6173732c2022732d73636f72655465787422295d2f74657874282929a165627a7a723058203faf6c689c4fa73edc0ebb249a4b20d69003c10adc3eefa1467032ab078ec0600029",
  "source": "pragma solidity ^0.4.18;\n\n\nimport \"zeppelin/math/SafeMath.sol\";\nimport \"./WolsukiFactory.sol\";\nimport \"./WolsukiValet.sol\";\n\n\n/// @title Core contract for Wolsuki. Holds all functions related to any single pool.\n/// @author Wolsuki (https://www.wolsuki.com)\ncontract WolsukiCore is WolsukiFactory, WolsukiValet {\n    using SafeMath for uint256;\n\n    /// @dev BetPlaced event is emitted whenever a player places a bet.\n    event BetPlaced(uint256 _poolId, address _player, uint256 _value);\n\n    /// @dev RewardClaimed event is emitted whenever a player claims a reward.\n    event RewardClaimed(uint256 _poolId, address _player);\n\n    /// @dev PoolOpened event is emitted whenever a user opens a pool.\n    event PoolOpened(\n        uint256 _poolId,\n        address _host,\n        uint256 _fixture,\n        uint64 _ratio,\n        uint8 _unlikelyOutcome\n    );\n\n\n    /// @dev payable constructor\n    function WolsukiCore() public payable {}\n\n    // @dev checks if a player won in a pool. A player wins when the pool is ended and\n    // the player's bet matches the outcome of the pool's fixture.\n    // @param _poolId id of the pool to be checked.\n    // @param _player address of the player to be checked.\n    // @return whether the player won the pool\n    function won(uint256 _poolId, address _player)\n        public\n        constant\n        returns (bool)\n    {\n        Pool storage pool = pools[_poolId];\n        Fixture storage fixture = fixtures[pool.fixtureId];\n\n        if (!fixture.ended)\n            return false;\n\n        // If sender is host and the unlikely outcome does not happen, the host won\n        if (_player == pool.host) {\n            if (pool.unlikelyOutcome != fixture.status)\n                return true;\n        } else {\n            if (pool.unlikelyOutcome == fixture.status) {\n                // Check if the player actually bet in this pool. If not, return false\n                if (pool.playerBets[_player] > 0)\n                    return true;\n            }\n        }\n        return false;\n    }\n\n    // @dev places a bet in the specified pool. A player can only place a bet once\n    // in a pool with a valid gate.\n    // @param _poolId id of the pool the player wants to place a bet\n    // @param _gate the gate number the player wants to place a bet on\n    function play(uint256 _poolId)\n        public\n        payable\n        validValue\n    {\n        Pool storage pool = pools[_poolId];\n        Fixture storage fixture = fixtures[pool.fixtureId];\n        // fixture must still be opened, sender must not be host\n        require(now > fixture.closedAt && msg.sender != pool.host);\n        // bet must not exceed pool's limit\n        require(pool.total.add(msg.value) <= pool.maxTotal);\n\n        uint256 bet = pool.playerBets[msg.sender];\n        // player must not place a bet in this pool before\n        require(bet == 0);\n\n        pool.playerBets[msg.sender] = msg.value;\n        pool.players.push(msg.sender);\n        pool.total = pool.total.add(msg.value);\n\n        BetPlaced(_poolId, msg.sender, msg.value);\n    }\n\n    // @dev claims prize if won or claims bet back if no winners. After the pool is ended,\n    // a winner needs to claim the winner's prize to be able to withdraw it from their wallet\n    // later. If there are no winners, in order to claim their bets back, a player will also\n    // need to call this function.\n    // @param _poolId id of the pool to claim from\n    function claim(uint256 _poolId)\n        public\n    {\n        Pool storage pool = pools[_poolId];\n        Fixture storage fixture = fixtures[pool.fixtureId];\n        // fixture must have been ended and player has not claimed prize\n        require(fixture.ended && !pool.claimed[msg.sender]);\n\n        pool.claimed[msg.sender] = true;\n\n        if (pool.host == msg.sender) {\n            if (pool.unlikelyOutcome != fixture.status) {\n                uint256 hostPayout = pool.hostBet.add(pool.total);\n                asyncSend(msg.sender, hostPayout);\n            } else {\n                uint256 hostLost = (pool.hostBet.mul(pool.total)).div(pool.maxTotal);\n                uint256 hostRemaining = pool.hostBet - hostLost;\n                asyncSend(msg.sender, hostRemaining);\n            }\n        } else {\n            if (pool.unlikelyOutcome == fixture.status) {\n                uint256 playerReward = (pool.playerBets[msg.sender].mul(pool.maxTotal)).div(pool.maxTotal);\n                uint256 playerPayout = pool.playerBets[msg.sender].add(playerReward);\n                asyncSend(msg.sender, playerPayout);\n            }\n        }\n\n        RewardClaimed(_poolId, msg.sender);\n    }\n\n    // @dev places a bet in the specified pool. A player can only place a bet once\n    // in a pool with a valid gate.\n    // @param _poolId id of the pool the player wants to place a bet\n    // @param _gate the gate number the player wants to place a bet on\n    function createPool(uint256 _fixtureId, uint64 _ratio, uint8 _unlikelyOutcome)\n        public\n        payable\n        validValue\n        validGuess(_unlikelyOutcome)\n        returns (uint256)\n    {\n        // The real ratio will 100 / _ratio. To restrict real ratio between 1:0.01 to 1:100,\n        // we limit the _ration param between 1 and 10000\n        require(1 <= _ratio && _ratio <= 10000);\n\n        Fixture storage fixture = fixtures[_fixtureId];\n        // fixture must not be closed\n        require(now > fixture.closedAt);\n\n        uint256 maxTotal = (msg.value.mul(_ratio)).div(100);\n\n        // @dev the default status is 0 but this does not matter as long as the fixture is opened.\n        // One should always check if the fixture is ended to know that the status is final.\n        Pool memory newPool = Pool({\n            players: new address[](0), // an empty list of players\n            host: msg.sender, // host's address is sender's address\n            fixtureId: _fixtureId,\n            hostBet: msg.value, // host's bet is the eth sent along\n            maxTotal: maxTotal, // max total of bets calculated from host's bet and ratio\n            total: 0, // by default, no one has bet\n            unlikelyOutcome: _unlikelyOutcome\n        });\n\n        // adds newly created fixture to the fixture list\n        uint256 newPoolId = pools.push(newPool) - 1;\n\n        // emit the fixture opened event with the fixture's id\n        PoolOpened(newPoolId, msg.sender, _fixtureId, _ratio, _unlikelyOutcome);\n\n        return newPoolId;\n    }\n}\n",
  "sourcePath": "/Applications/MAMP/htdocs/WolsukiContract/contracts/WolsukiCore.sol",
  "compiler": {
    "name": "solc",
    "version": "0.4.23+commit.124ca40d.Emscripten.clang"
  },
  "schemaVersion": "2.0.0",
  "updatedAt": "2018-05-21T05:10:42.953Z"
}