{
  "contractName": "WolsukiBase",
  "abi": [
    {
      "constant": true,
      "inputs": [],
      "name": "totalPayments",
      "outputs": [
        {
          "name": "",
          "type": "uint256"
        }
      ],
      "payable": false,
      "stateMutability": "view",
      "type": "function"
    },
    {
      "constant": false,
      "inputs": [],
      "name": "withdrawPayments",
      "outputs": [],
      "payable": false,
      "stateMutability": "nonpayable",
      "type": "function"
    },
    {
      "constant": true,
      "inputs": [
        {
          "name": "",
          "type": "uint256"
        }
      ],
      "name": "fixtures",
      "outputs": [
        {
          "name": "closedAt",
          "type": "uint256"
        },
        {
          "name": "endedAt",
          "type": "uint256"
        },
        {
          "name": "externalId",
          "type": "string"
        },
        {
          "name": "status",
          "type": "uint8"
        },
        {
          "name": "ended",
          "type": "bool"
        }
      ],
      "payable": false,
      "stateMutability": "view",
      "type": "function"
    },
    {
      "constant": true,
      "inputs": [],
      "name": "owner",
      "outputs": [
        {
          "name": "",
          "type": "address"
        }
      ],
      "payable": false,
      "stateMutability": "view",
      "type": "function"
    },
    {
      "constant": true,
      "inputs": [
        {
          "name": "",
          "type": "uint256"
        }
      ],
      "name": "pools",
      "outputs": [
        {
          "name": "host",
          "type": "address"
        },
        {
          "name": "fixtureId",
          "type": "uint256"
        },
        {
          "name": "hostBet",
          "type": "uint256"
        },
        {
          "name": "maxTotal",
          "type": "uint256"
        },
        {
          "name": "total",
          "type": "uint256"
        },
        {
          "name": "unlikelyOutcome",
          "type": "uint8"
        }
      ],
      "payable": false,
      "stateMutability": "view",
      "type": "function"
    },
    {
      "constant": true,
      "inputs": [
        {
          "name": "",
          "type": "address"
        }
      ],
      "name": "payments",
      "outputs": [
        {
          "name": "",
          "type": "uint256"
        }
      ],
      "payable": false,
      "stateMutability": "view",
      "type": "function"
    },
    {
      "constant": false,
      "inputs": [
        {
          "name": "newOwner",
          "type": "address"
        }
      ],
      "name": "transferOwnership",
      "outputs": [],
      "payable": false,
      "stateMutability": "nonpayable",
      "type": "function"
    },
    {
      "anonymous": false,
      "inputs": [
        {
          "indexed": true,
          "name": "previousOwner",
          "type": "address"
        },
        {
          "indexed": true,
          "name": "newOwner",
          "type": "address"
        }
      ],
      "name": "OwnershipTransferred",
      "type": "event"
    },
    {
      "constant": true,
      "inputs": [
        {
          "name": "_poolId",
          "type": "uint256"
        },
        {
          "name": "_player",
          "type": "address"
        }
      ],
      "name": "queryBetValue",
      "outputs": [
        {
          "name": "",
          "type": "uint256"
        }
      ],
      "payable": false,
      "stateMutability": "view",
      "type": "function"
    },
    {
      "constant": true,
      "inputs": [
        {
          "name": "_poolId",
          "type": "uint256"
        },
        {
          "name": "_player",
          "type": "address"
        }
      ],
      "name": "queryBetClaimed",
      "outputs": [
        {
          "name": "",
          "type": "bool"
        }
      ],
      "payable": false,
      "stateMutability": "view",
      "type": "function"
    },
    {
      "constant": true,
      "inputs": [
        {
          "name": "_poolId",
          "type": "uint256"
        }
      ],
      "name": "queryPlayers",
      "outputs": [
        {
          "name": "",
          "type": "address[]"
        }
      ],
      "payable": false,
      "stateMutability": "view",
      "type": "function"
    }
  ],
  "bytecode": "0x6080604052336000806101000a81548173ffffffffffffffffffffffffffffffffffffffff021916908373ffffffffffffffffffffffffffffffffffffffff160217905550610af0806100536000396000f3006080604052600436106100a3576000357c0100000000000000000000000000000000000000000000000000000000900463ffffffff1680625b4487146100a85780636103d70b146100d357806367bfef67146100ea5780637cbdc001146101b65780638790af3e146102385780638da5cb5b1461029d578063ac4afa38146102f4578063e2982c211461038a578063e6bae1ec146103e1578063f2fde38b14610442575b600080fd5b3480156100b457600080fd5b506100bd610485565b6040518082815260200191505060405180910390f35b3480156100df57600080fd5b506100e861048b565b005b3480156100f657600080fd5b50610115600480360381019080803590602001909291905050506105aa565b60405180868152602001858152602001806020018460ff1660ff16815260200183151515158152602001828103825285818151815260200191508051906020019080838360005b8381101561017757808201518184015260208101905061015c565b50505050905090810190601f1680156101a45780820380516001836020036101000a031916815260200191505b50965050505050505060405180910390f35b3480156101c257600080fd5b506101e1600480360381019080803590602001909291905050506106a1565b6040518080602001828103825283818151815260200191508051906020019060200280838360005b83811015610224578082015181840152602081019050610209565b505050509050019250505060405180910390f35b34801561024457600080fd5b5061028360048036038101908080359060200190929190803573ffffffffffffffffffffffffffffffffffffffff169060200190929190505050610755565b604051808215151515815260200191505060405180910390f35b3480156102a957600080fd5b506102b26107cf565b604051808273ffffffffffffffffffffffffffffffffffffffff1673ffffffffffffffffffffffffffffffffffffffff16815260200191505060405180910390f35b34801561030057600080fd5b5061031f600480360381019080803590602001909291905050506107f4565b604051808773ffffffffffffffffffffffffffffffffffffffff1673ffffffffffffffffffffffffffffffffffffffff1681526020018681526020018581526020018481526020018381526020018260ff1660ff168152602001965050505050505060405180910390f35b34801561039657600080fd5b506103cb600480360381019080803573ffffffffffffffffffffffffffffffffffffffff16906020019092919050505061086c565b6040518082815260200191505060405180910390f35b3480156103ed57600080fd5b5061042c60048036038101908080359060200190929190803573ffffffffffffffffffffffffffffffffffffffff169060200190929190505050610884565b6040518082815260200191505060405180910390f35b34801561044e57600080fd5b50610483600480360381019080803573ffffffffffffffffffffffffffffffffffffffff169060200190929190505050610956565b005b60025481565b600080339150600160008373ffffffffffffffffffffffffffffffffffffffff1673ffffffffffffffffffffffffffffffffffffffff168152602001908152602001600020549050600081141515156104e357600080fd5b803073ffffffffffffffffffffffffffffffffffffffff16311015151561050957600080fd5b61051e81600254610aab90919063ffffffff16565b6002819055506000600160008473ffffffffffffffffffffffffffffffffffffffff1673ffffffffffffffffffffffffffffffffffffffff168152602001908152602001600020819055508173ffffffffffffffffffffffffffffffffffffffff166108fc829081150290604051600060405180830381858888f1935050505015156105a657fe5b5050565b6003818154811015156105b957fe5b9060005260206000209060040201600091509050806000015490806001015490806002018054600181600116156101000203166002900480601f0160208091040260200160405190810160405280929190818152602001828054600181600116156101000203166002900480156106715780601f1061064657610100808354040283529160200191610671565b820191906000526020600020905b81548152906001019060200180831161065457829003601f168201915b5050505050908060030160009054906101000a900460ff16908060030160019054906101000a900460ff16905085565b606060006004838154811015156106b457fe5b906000526020600020906009020190508060020180548060200260200160405190810160405280929190818152602001828054801561074857602002820191906000526020600020905b8160009054906101000a900473ffffffffffffffffffffffffffffffffffffffff1673ffffffffffffffffffffffffffffffffffffffff16815260200190600101908083116106fe575b5050505050915050919050565b60008060048481548110151561076757fe5b906000526020600020906009020190508060010160008473ffffffffffffffffffffffffffffffffffffffff1673ffffffffffffffffffffffffffffffffffffffff16815260200190815260200160002060009054906101000a900460ff1691505092915050565b6000809054906101000a900473ffffffffffffffffffffffffffffffffffffffff1681565b60048181548110151561080357fe5b90600052602060002090600902016000915090508060030160009054906101000a900473ffffffffffffffffffffffffffffffffffffffff16908060040154908060050154908060060154908060070154908060080160009054906101000a900460ff16905086565b60016020528060005260406000206000915090505481565b60008060048481548110151561089657fe5b906000526020600020906009020190508060030160009054906101000a900473ffffffffffffffffffffffffffffffffffffffff1673ffffffffffffffffffffffffffffffffffffffff168373ffffffffffffffffffffffffffffffffffffffff16141561090a578060050154915061094f565b8060000160008473ffffffffffffffffffffffffffffffffffffffff1673ffffffffffffffffffffffffffffffffffffffff1681526020019081526020016000205491505b5092915050565b6000809054906101000a900473ffffffffffffffffffffffffffffffffffffffff1673ffffffffffffffffffffffffffffffffffffffff163373ffffffffffffffffffffffffffffffffffffffff161415156109b157600080fd5b600073ffffffffffffffffffffffffffffffffffffffff168173ffffffffffffffffffffffffffffffffffffffff16141515156109ed57600080fd5b8073ffffffffffffffffffffffffffffffffffffffff166000809054906101000a900473ffffffffffffffffffffffffffffffffffffffff1673ffffffffffffffffffffffffffffffffffffffff167f8be0079c531659141344cd1fd0a4f28419497f9722a3daafe3b4186f6b6457e060405160405180910390a3806000806101000a81548173ffffffffffffffffffffffffffffffffffffffff021916908373ffffffffffffffffffffffffffffffffffffffff16021790555050565b6000828211151515610ab957fe5b8183039050929150505600a165627a7a72305820b5016d1d1d096926f11cde56e0c5bcadc34c661f9bd24cc707d08c06f3f4e9760029",
  "source": "pragma solidity ^0.4.18;\n\n\nimport \"zeppelin/ownership/Ownable.sol\";\nimport \"zeppelin/payment/PullPayment.sol\";\n\n\n/// @title Base Contract for Wolsuki. Holds all common structs, events and base variables.\n/// @author Wolsuki (https://www.wolsuki.com)\ncontract WolsukiBase is Ownable, PullPayment {\n\n    /// @dev When a Pool is created or opened, players can start placing their bets\n    /// until the Pool is ended. A ended Pool cannot be reopened and can only be ended\n    /// after a period. A pool can only be ended if and only if its fixture has ended.\n    struct Pool {\n        // A mapping from a player's address to the value of a bet that the player\n        // places for this pool.\n        mapping(address => uint256) playerBets;\n\n        // A mapping from a player's address to whether the player has claimed\n        // prize if winning.\n        mapping(address => bool) claimed;\n\n        // List of all players participating in this pool.\n        address[] players;\n\n        // Bet of the host when he/she creates the pool\n        address host;\n\n        // The outcome / winning guess number of a pool. If a player has placed a bet which\n        // is the same as the outcome, that player is considered as a winner and is entitled\n        // the claim the reward.\n        uint256 fixtureId;\n\n        // Value of what the host puts in to bet against other players.\n        uint256 hostBet;\n\n        // Maximum total of bets all players are allowed to bet against the host.\n        uint256 maxTotal;\n\n        // Total of all bets in the pool except for host's bet.\n        uint256 total;\n\n        // Outcome of the fixture that the host predicts it's unlikely going to happen.\n        uint8 unlikelyOutcome;\n    }\n\n    /// @dev When a fixture is created, users can start opening their own pools from the fixture\n    /// util the fixture is closed. A closed fixture cannot be reopened and can only be closed\n    /// after a period. The result of the fixture is queried from SportMonks api and cannot\n    /// be altered by anyone. Furthermore, only contract owner can create a fixture and contract\n    /// owner needs to make sure a fixture is linked properly to a fixture on SportMonks.\n    struct Fixture {\n        // When the fixture can be ended. Calling the fixture to end before this time will throw\n        // an error.\n        uint256 closedAt;\n\n        // When the fixture can be ended. Calling the fixture to end before this time will throw\n        // an error.\n        uint256 endedAt;\n\n        // Fixture's id from api provider.\n        string externalId;\n\n        // Status of a fixture. It can be any of the following values:\n        //  1 => home team wins\n        //  2 => away team wins\n        //  3 => draw\n        uint8 status;\n\n        // Whether a fixture is ended. This value can only be changed from false to true,\n        // which means if a fixture is ended, it cannot be reopened.\n        bool ended;\n    }\n\n    /// @dev List of all fixtures. Only the owner of the contract can open a new fixture.\n    Fixture[] public fixtures;\n\n    /// @dev List of all pools. Anyone can open a new pool.\n    Pool[] public pools;\n\n\n    /// @dev The payable value in a transaction must be greater than 0.001 ETH and\n    /// smaller than 100 ETH in order for the transaction to be performed.\n    /// Otherwise, it will be reverted.\n    modifier validValue() {\n        require(msg.value > 1000000000000000 && msg.value < 100000000000000000000);\n        _;\n    }\n\n    /// @dev A valid guess for a bet is between 1 and 3 where:\n    ///   1 => home team wins\n    ///   2 => away team wins\n    ///   3 => draw\n    /// If a player tries to place a bet whose guess is either greater than 3\n    /// or smaller than 1, the transaction will be reverted.\n    /// For example, a guess of 0 will result in transaction error.\n    /// Similarly if the player tries to place a bet with guess 10 ( > 3), an error\n    /// will be thrown for that transaction as well.\n    modifier validGuess(uint8 _guess) {\n        require(1 <= _guess && _guess <= 3);\n        _;\n    }\n\n\n    /// @dev Helper function to query a bet's value in a pool\n    /// @param _poolId id of the pool that is queried from\n    /// @param _player address of player the bet belongs to\n    /// @return the bet's value\n    function queryBetValue(uint256 _poolId, address _player)\n        public\n        constant\n        returns (uint256)\n    {\n        Pool storage pool = pools[_poolId];\n        if (_player == pool.host)\n            return pool.hostBet;\n        return pool.playerBets[_player];\n    }\n\n    /// @dev Helper function to query whether a bet is claimed\n    /// @param _poolId id of the pool that is queried from\n    /// @param _player address of player the bet belongs to\n    /// @return the Bet object\n    function queryBetClaimed(uint256 _poolId, address _player)\n        public\n        constant\n        returns (bool)\n    {\n        Pool storage pool = pools[_poolId];\n        return pool.claimed[_player];\n    }\n\n    /// @dev Helper function to query list of players in a pool\n    /// @param _poolId id of the pool that is queried from\n    /// @return list of players' addresses\n    function queryPlayers(uint256 _poolId)\n        public\n        constant\n        returns (address[])\n    {\n        Pool storage pool = pools[_poolId];\n        return pool.players;\n    }\n}\n",
  "sourcePath": "/Applications/MAMP/htdocs/WolsukiContract/contracts/WolsukiBase.sol",
  "compiler": {
    "name": "solc",
    "version": "0.4.23+commit.124ca40d.Emscripten.clang"
  },
  "schemaVersion": "2.0.0",
  "updatedAt": "2018-05-21T05:10:42.949Z"
}