{
  "contractName": "WolsukiValet",
  "abi": [
    {
      "constant": true,
      "inputs": [],
      "name": "totalPayments",
      "outputs": [
        {
          "name": "",
          "type": "uint256"
        }
      ],
      "payable": false,
      "stateMutability": "view",
      "type": "function"
    },
    {
      "constant": false,
      "inputs": [],
      "name": "withdrawPayments",
      "outputs": [],
      "payable": false,
      "stateMutability": "nonpayable",
      "type": "function"
    },
    {
      "constant": true,
      "inputs": [
        {
          "name": "",
          "type": "uint256"
        }
      ],
      "name": "fixtures",
      "outputs": [
        {
          "name": "closedAt",
          "type": "uint256"
        },
        {
          "name": "endedAt",
          "type": "uint256"
        },
        {
          "name": "externalId",
          "type": "string"
        },
        {
          "name": "status",
          "type": "uint8"
        },
        {
          "name": "ended",
          "type": "bool"
        }
      ],
      "payable": false,
      "stateMutability": "view",
      "type": "function"
    },
    {
      "constant": true,
      "inputs": [
        {
          "name": "_poolId",
          "type": "uint256"
        }
      ],
      "name": "queryPlayers",
      "outputs": [
        {
          "name": "",
          "type": "address[]"
        }
      ],
      "payable": false,
      "stateMutability": "view",
      "type": "function"
    },
    {
      "constant": true,
      "inputs": [
        {
          "name": "_poolId",
          "type": "uint256"
        },
        {
          "name": "_player",
          "type": "address"
        }
      ],
      "name": "queryBetClaimed",
      "outputs": [
        {
          "name": "",
          "type": "bool"
        }
      ],
      "payable": false,
      "stateMutability": "view",
      "type": "function"
    },
    {
      "constant": true,
      "inputs": [],
      "name": "owner",
      "outputs": [
        {
          "name": "",
          "type": "address"
        }
      ],
      "payable": false,
      "stateMutability": "view",
      "type": "function"
    },
    {
      "constant": true,
      "inputs": [
        {
          "name": "",
          "type": "uint256"
        }
      ],
      "name": "pools",
      "outputs": [
        {
          "name": "host",
          "type": "address"
        },
        {
          "name": "fixtureId",
          "type": "uint256"
        },
        {
          "name": "hostBet",
          "type": "uint256"
        },
        {
          "name": "maxTotal",
          "type": "uint256"
        },
        {
          "name": "total",
          "type": "uint256"
        },
        {
          "name": "unlikelyOutcome",
          "type": "uint8"
        }
      ],
      "payable": false,
      "stateMutability": "view",
      "type": "function"
    },
    {
      "constant": true,
      "inputs": [
        {
          "name": "",
          "type": "address"
        }
      ],
      "name": "payments",
      "outputs": [
        {
          "name": "",
          "type": "uint256"
        }
      ],
      "payable": false,
      "stateMutability": "view",
      "type": "function"
    },
    {
      "constant": true,
      "inputs": [
        {
          "name": "_poolId",
          "type": "uint256"
        },
        {
          "name": "_player",
          "type": "address"
        }
      ],
      "name": "queryBetValue",
      "outputs": [
        {
          "name": "",
          "type": "uint256"
        }
      ],
      "payable": false,
      "stateMutability": "view",
      "type": "function"
    },
    {
      "constant": false,
      "inputs": [
        {
          "name": "newOwner",
          "type": "address"
        }
      ],
      "name": "transferOwnership",
      "outputs": [],
      "payable": false,
      "stateMutability": "nonpayable",
      "type": "function"
    },
    {
      "inputs": [],
      "payable": false,
      "stateMutability": "nonpayable",
      "type": "constructor"
    },
    {
      "anonymous": false,
      "inputs": [
        {
          "indexed": false,
          "name": "_fixtureId",
          "type": "uint256"
        }
      ],
      "name": "FixtureEnded",
      "type": "event"
    },
    {
      "anonymous": false,
      "inputs": [
        {
          "indexed": true,
          "name": "previousOwner",
          "type": "address"
        },
        {
          "indexed": true,
          "name": "newOwner",
          "type": "address"
        }
      ],
      "name": "OwnershipTransferred",
      "type": "event"
    },
    {
      "constant": false,
      "inputs": [
        {
          "name": "_fixtureId",
          "type": "uint16"
        }
      ],
      "name": "endFixture",
      "outputs": [],
      "payable": true,
      "stateMutability": "payable",
      "type": "function"
    },
    {
      "constant": false,
      "inputs": [
        {
          "name": "myid",
          "type": "bytes32"
        },
        {
          "name": "result",
          "type": "string"
        }
      ],
      "name": "__callback",
      "outputs": [],
      "payable": false,
      "stateMutability": "nonpayable",
      "type": "function"
    },
    {
      "constant": false,
      "inputs": [
        {
          "name": "_queryId",
          "type": "bytes32"
        },
        {
          "name": "_result",
          "type": "string"
        },
        {
          "name": "_proof",
          "type": "bytes"
        }
      ],
      "name": "__callback",
      "outputs": [],
      "payable": false,
      "stateMutability": "nonpayable",
      "type": "function"
    }
  ],
  "bytecode": "0x60806040523480156200001157600080fd5b50336000806101000a81548173ffffffffffffffffffffffffffffffffffffffff021916908373ffffffffffffffffffffffffffffffffffffffff1602179055506200008f60307f01000000000000000000000000000000000000000000000000000000000000000262000095640100000000026401000000009004565b62000aa4565b6000600560009054906101000a900473ffffffffffffffffffffffffffffffffffffffff1673ffffffffffffffffffffffffffffffffffffffff161480620001185750600062000116600560009054906101000a900473ffffffffffffffffffffffffffffffffffffffff166200044d640100000000026401000000009004565b145b156200013b5762000139600062000458640100000000026401000000009004565b505b600560009054906101000a900473ffffffffffffffffffffffffffffffffffffffff1673ffffffffffffffffffffffffffffffffffffffff166338cc48316040518163ffffffff167c0100000000000000000000000000000000000000000000000000000000028152600401602060405180830381600087803b158015620001c257600080fd5b505af1158015620001d7573d6000803e3d6000fd5b505050506040513d6020811015620001ee57600080fd5b810190808051906020019092919050505073ffffffffffffffffffffffffffffffffffffffff16600660009054906101000a900473ffffffffffffffffffffffffffffffffffffffff1673ffffffffffffffffffffffffffffffffffffffff161415156200035b57600560009054906101000a900473ffffffffffffffffffffffffffffffffffffffff1673ffffffffffffffffffffffffffffffffffffffff166338cc48316040518163ffffffff167c0100000000000000000000000000000000000000000000000000000000028152600401602060405180830381600087803b158015620002dd57600080fd5b505af1158015620002f2573d6000803e3d6000fd5b505050506040513d60208110156200030957600080fd5b8101908080519060200190929190505050600660006101000a81548173ffffffffffffffffffffffffffffffffffffffff021916908373ffffffffffffffffffffffffffffffffffffffff1602179055505b600660009054906101000a900473ffffffffffffffffffffffffffffffffffffffff1673ffffffffffffffffffffffffffffffffffffffff1663688dcfd7826040518263ffffffff167c010000000000000000000000000000000000000000000000000000000002815260040180827effffffffffffffffffffffffffffffffffffffffffffffffffffffffffffff19167effffffffffffffffffffffffffffffffffffffffffffffffffffffffffffff19168152602001915050600060405180830381600087803b1580156200043157600080fd5b505af115801562000446573d6000803e3d6000fd5b5050505050565b6000813b9050919050565b6000620004736200047a640100000000026401000000009004565b9050919050565b600080620004ab731d3b2638a7cc9f2cb3d298a3da7a90b67e5506ed6200044d640100000000026401000000009004565b11156200056057731d3b2638a7cc9f2cb3d298a3da7a90b67e5506ed600560006101000a81548173ffffffffffffffffffffffffffffffffffffffff021916908373ffffffffffffffffffffffffffffffffffffffff160217905550620005566040805190810160405280600b81526020017f6574685f6d61696e6e6574000000000000000000000000000000000000000000815250620009d9640100000000026401000000009004565b60019050620009d6565b60006200059073c03a2615d5efaf5f49f60b7bb6583eaec212fdf16200044d640100000000026401000000009004565b1115620006455773c03a2615d5efaf5f49f60b7bb6583eaec212fdf1600560006101000a81548173ffffffffffffffffffffffffffffffffffffffff021916908373ffffffffffffffffffffffffffffffffffffffff1602179055506200063b6040805190810160405280600c81526020017f6574685f726f707374656e330000000000000000000000000000000000000000815250620009d9640100000000026401000000009004565b60019050620009d6565b60006200067573b7a07bcf2ba2f2703b24c0691b5278999c59ac7e6200044d640100000000026401000000009004565b11156200072a5773b7a07bcf2ba2f2703b24c0691b5278999c59ac7e600560006101000a81548173ffffffffffffffffffffffffffffffffffffffff021916908373ffffffffffffffffffffffffffffffffffffffff160217905550620007206040805190810160405280600981526020017f6574685f6b6f76616e0000000000000000000000000000000000000000000000815250620009d9640100000000026401000000009004565b60019050620009d6565b60006200075a73146500cfd35b22e4a392fe0adc06de1a1368ed486200044d640100000000026401000000009004565b11156200080f5773146500cfd35b22e4a392fe0adc06de1a1368ed48600560006101000a81548173ffffffffffffffffffffffffffffffffffffffff021916908373ffffffffffffffffffffffffffffffffffffffff160217905550620008056040805190810160405280600b81526020017f6574685f72696e6b656279000000000000000000000000000000000000000000815250620009d9640100000000026401000000009004565b60019050620009d6565b60006200083f736f485c8bf6fc43ea212e93bbf8ce046c7f1cb4756200044d640100000000026401000000009004565b1115620008a557736f485c8bf6fc43ea212e93bbf8ce046c7f1cb475600560006101000a81548173ffffffffffffffffffffffffffffffffffffffff021916908373ffffffffffffffffffffffffffffffffffffffff16021790555060019050620009d6565b6000620008d57320e12a1f859b3feae5fb2a0a32c18f5a65555bbf6200044d640100000000026401000000009004565b11156200093b577320e12a1f859b3feae5fb2a0a32c18f5a65555bbf600560006101000a81548173ffffffffffffffffffffffffffffffffffffffff021916908373ffffffffffffffffffffffffffffffffffffffff16021790555060019050620009d6565b60006200096b7351efaf4c8b3c9afbd5ab9f4bbc82784ab6ef8faa6200044d640100000000026401000000009004565b1115620009d1577351efaf4c8b3c9afbd5ab9f4bbc82784ab6ef8faa600560006101000a81548173ffffffffffffffffffffffffffffffffffffffff021916908373ffffffffffffffffffffffffffffffffffffffff16021790555060019050620009d6565b600090505b90565b8060079080519060200190620009f1929190620009f5565b5050565b828054600181600116156101000203166002900490600052602060002090601f016020900481019282601f1062000a3857805160ff191683800117855562000a69565b8280016001018555821562000a69579182015b8281111562000a6857825182559160200191906001019062000a4b565b5b50905062000a78919062000a7c565b5090565b62000aa191905b8082111562000a9d57600081600090555060010162000a83565b5090565b90565b6123318062000ab46000396000f3006080604052600436106100c4576000357c0100000000000000000000000000000000000000000000000000000000900463ffffffff1680625b4487146100c957806327dc297e146100f457806338bbfa501461016b5780636103d70b1461022857806367bfef671461023f578063698c33321461030b5780637cbdc0011461032f5780638790af3e146103b15780638da5cb5b14610416578063ac4afa381461046d578063e2982c2114610503578063e6bae1ec1461055a578063f2fde38b146105bb575b600080fd5b3480156100d557600080fd5b506100de6105fe565b6040518082815260200191505060405180910390f35b34801561010057600080fd5b506101696004803603810190808035600019169060200190929190803590602001908201803590602001908080601f0160208091040260200160405190810160405280939291908181526020018383808284378201915050505050509192919290505050610604565b005b34801561017757600080fd5b506102266004803603810190808035600019169060200190929190803590602001908201803590602001908080601f0160208091040260200160405190810160405280939291908181526020018383808284378201915050505050509192919290803590602001908201803590602001908080601f0160208091040260200160405190810160405280939291908181526020018383808284378201915050505050509192919290505050610647565b005b34801561023457600080fd5b5061023d610785565b005b34801561024b57600080fd5b5061026a600480360381019080803590602001909291905050506108a4565b60405180868152602001858152602001806020018460ff1660ff16815260200183151515158152602001828103825285818151815260200191508051906020019080838360005b838110156102cc5780820151818401526020810190506102b1565b50505050905090810190601f1680156102f95780820380516001836020036101000a031916815260200191505b50965050505050505060405180910390f35b61032d600480360381019080803561ffff16906020019092919050505061099b565b005b34801561033b57600080fd5b5061035a60048036038101908080359060200190929190505050610acc565b6040518080602001828103825283818151815260200191508051906020019060200280838360005b8381101561039d578082015181840152602081019050610382565b505050509050019250505060405180910390f35b3480156103bd57600080fd5b506103fc60048036038101908080359060200190929190803573ffffffffffffffffffffffffffffffffffffffff169060200190929190505050610b80565b604051808215151515815260200191505060405180910390f35b34801561042257600080fd5b5061042b610bfa565b604051808273ffffffffffffffffffffffffffffffffffffffff1673ffffffffffffffffffffffffffffffffffffffff16815260200191505060405180910390f35b34801561047957600080fd5b5061049860048036038101908080359060200190929190505050610c1f565b604051808773ffffffffffffffffffffffffffffffffffffffff1673ffffffffffffffffffffffffffffffffffffffff1681526020018681526020018581526020018481526020018381526020018260ff1660ff168152602001965050505050505060405180910390f35b34801561050f57600080fd5b50610544600480360381019080803573ffffffffffffffffffffffffffffffffffffffff169060200190929190505050610c97565b6040518082815260200191505060405180910390f35b34801561056657600080fd5b506105a560048036038101908080359060200190929190803573ffffffffffffffffffffffffffffffffffffffff169060200190929190505050610caf565b6040518082815260200191505060405180910390f35b3480156105c757600080fd5b506105fc600480360381019080803573ffffffffffffffffffffffffffffffffffffffff169060200190929190505050610d81565b005b60025481565b610643828260006040519080825280601f01601f19166020018201604052801561063d5781602001602082028038833980820191505090505b50610647565b5050565b600080610652610ed6565b73ffffffffffffffffffffffffffffffffffffffff163373ffffffffffffffffffffffffffffffffffffffff1614151561068b57600080fd5b600a600086600019166000191681526020019081526020016000205491506003828154811015156106b857fe5b906000526020600020906004020190508060030160019054906101000a900460ff161515156106e657600080fd5b60018160030160016101000a81548160ff02191690831515021790555061070c84611238565b8160030160006101000a81548160ff021916908360ff160217905550600a60008660001916600019168152602001908152602001600020600090557f94105dd09727d6726633174a89902a6e8e596175785de861ca3db2ce351e626f826040518082815260200191505060405180910390a15050505050565b600080339150600160008373ffffffffffffffffffffffffffffffffffffffff1673ffffffffffffffffffffffffffffffffffffffff168152602001908152602001600020549050600081141515156107dd57600080fd5b803073ffffffffffffffffffffffffffffffffffffffff16311015151561080357600080fd5b6108188160025461175090919063ffffffff16565b6002819055506000600160008473ffffffffffffffffffffffffffffffffffffffff1673ffffffffffffffffffffffffffffffffffffffff168152602001908152602001600020819055508173ffffffffffffffffffffffffffffffffffffffff166108fc829081150290604051600060405180830381858888f1935050505015156108a057fe5b5050565b6003818154811015156108b357fe5b9060005260206000209060040201600091509050806000015490806001015490806002018054600181600116156101000203166002900480601f01602080910402602001604051908101604052809291908181526020018280546001816001161561010002031660029004801561096b5780601f106109405761010080835404028352916020019161096b565b820191906000526020600020905b81548152906001019060200180831161094e57829003601f168201915b5050505050908060030160009054906101000a900460ff16908060030160019054906101000a900460ff16905085565b6000806000809054906101000a900473ffffffffffffffffffffffffffffffffffffffff1673ffffffffffffffffffffffffffffffffffffffff163373ffffffffffffffffffffffffffffffffffffffff161415156109f957600080fd5b60038361ffff16815481101515610a0c57fe5b906000526020600020906004020191508160030160019054906101000a900460ff16158015610a3e5750816001015442115b1515610a4957600080fd5b610aa16040805190810160405280600381526020017f55524c000000000000000000000000000000000000000000000000000000000081525060c0604051908101604052806085815260200161228160859139611769565b90508261ffff16600a6000836000191660001916815260200190815260200160002081905550505050565b60606000600483815481101515610adf57fe5b9060005260206000209060090201905080600201805480602002602001604051908101604052809291908181526020018280548015610b7357602002820191906000526020600020905b8160009054906101000a900473ffffffffffffffffffffffffffffffffffffffff1673ffffffffffffffffffffffffffffffffffffffff1681526020019060010190808311610b29575b5050505050915050919050565b600080600484815481101515610b9257fe5b906000526020600020906009020190508060010160008473ffffffffffffffffffffffffffffffffffffffff1673ffffffffffffffffffffffffffffffffffffffff16815260200190815260200160002060009054906101000a900460ff1691505092915050565b6000809054906101000a900473ffffffffffffffffffffffffffffffffffffffff1681565b600481815481101515610c2e57fe5b90600052602060002090600902016000915090508060030160009054906101000a900473ffffffffffffffffffffffffffffffffffffffff16908060040154908060050154908060060154908060070154908060080160009054906101000a900460ff16905086565b60016020528060005260406000206000915090505481565b600080600484815481101515610cc157fe5b906000526020600020906009020190508060030160009054906101000a900473ffffffffffffffffffffffffffffffffffffffff1673ffffffffffffffffffffffffffffffffffffffff168373ffffffffffffffffffffffffffffffffffffffff161415610d355780600501549150610d7a565b8060000160008473ffffffffffffffffffffffffffffffffffffffff1673ffffffffffffffffffffffffffffffffffffffff1681526020019081526020016000205491505b5092915050565b6000809054906101000a900473ffffffffffffffffffffffffffffffffffffffff1673ffffffffffffffffffffffffffffffffffffffff163373ffffffffffffffffffffffffffffffffffffffff16141515610ddc57600080fd5b600073ffffffffffffffffffffffffffffffffffffffff168173ffffffffffffffffffffffffffffffffffffffff1614151515610e1857600080fd5b8073ffffffffffffffffffffffffffffffffffffffff166000809054906101000a900473ffffffffffffffffffffffffffffffffffffffff1673ffffffffffffffffffffffffffffffffffffffff167f8be0079c531659141344cd1fd0a4f28419497f9722a3daafe3b4186f6b6457e060405160405180910390a3806000806101000a81548173ffffffffffffffffffffffffffffffffffffffff021916908373ffffffffffffffffffffffffffffffffffffffff16021790555050565b600080600560009054906101000a900473ffffffffffffffffffffffffffffffffffffffff1673ffffffffffffffffffffffffffffffffffffffff161480610f4857506000610f46600560009054906101000a900473ffffffffffffffffffffffffffffffffffffffff16611d0f565b145b15610f5957610f576000611d1a565b505b600560009054906101000a900473ffffffffffffffffffffffffffffffffffffffff1673ffffffffffffffffffffffffffffffffffffffff166338cc48316040518163ffffffff167c0100000000000000000000000000000000000000000000000000000000028152600401602060405180830381600087803b158015610fdf57600080fd5b505af1158015610ff3573d6000803e3d6000fd5b505050506040513d602081101561100957600080fd5b810190808051906020019092919050505073ffffffffffffffffffffffffffffffffffffffff16600660009054906101000a900473ffffffffffffffffffffffffffffffffffffffff1673ffffffffffffffffffffffffffffffffffffffff1614151561117257600560009054906101000a900473ffffffffffffffffffffffffffffffffffffffff1673ffffffffffffffffffffffffffffffffffffffff166338cc48316040518163ffffffff167c0100000000000000000000000000000000000000000000000000000000028152600401602060405180830381600087803b1580156110f657600080fd5b505af115801561110a573d6000803e3d6000fd5b505050506040513d602081101561112057600080fd5b8101908080519060200190929190505050600660006101000a81548173ffffffffffffffffffffffffffffffffffffffff021916908373ffffffffffffffffffffffffffffffffffffffff1602179055505b600660009054906101000a900473ffffffffffffffffffffffffffffffffffffffff1673ffffffffffffffffffffffffffffffffffffffff1663c281d19e6040518163ffffffff167c0100000000000000000000000000000000000000000000000000000000028152600401602060405180830381600087803b1580156111f857600080fd5b505af115801561120c573d6000803e3d6000fd5b505050506040513d602081101561122257600080fd5b8101908080519060200190929190505050905090565b6000606080606060008060008088965060026040519080825280602002602001820160405280156112785781602001602082028038833980820191505090505b50955060026040519080825280602002602001820160405280156112ab5781602001602082028038833980820191505090505b509450600093506000925060009150868260ff168151811015156112cb57fe5b9060200101517f010000000000000000000000000000000000000000000000000000000000000090047f01000000000000000000000000000000000000000000000000000000000000000290505b7f2d00000000000000000000000000000000000000000000000000000000000000817effffffffffffffffffffffffffffffffffffffffffffffffffffffffffffff191614151561143d5780868560ff1681518110151561137657fe5b906020019060200201907effffffffffffffffffffffffffffffffffffffffffffffffffffffffffffff191690817effffffffffffffffffffffffffffffffffffffffffffffffffffffffffffff19168152505083806001019450508180600101925050868260ff168151811015156113eb57fe5b9060200101517f010000000000000000000000000000000000000000000000000000000000000090047f0100000000000000000000000000000000000000000000000000000000000000029050611319565b81806001019250505b86518260ff16101561152b57868260ff1681518110151561146357fe5b9060200101517f010000000000000000000000000000000000000000000000000000000000000090047f010000000000000000000000000000000000000000000000000000000000000002905080858460ff168151811015156114c257fe5b906020019060200201907effffffffffffffffffffffffffffffffffffffffffffffffffffffffffffff191690817effffffffffffffffffffffffffffffffffffffffffffffffffffffffffffff19168152505082806001019350508180600101925050611446565b84600181518110151561153a57fe5b906020019060200201517effffffffffffffffffffffffffffffffffffffffffffffffffffffffffffff191686600181518110151561157557fe5b906020019060200201517effffffffffffffffffffffffffffffffffffffffffffffffffffffffffffff191611156115b05760019750611744565b8460018151811015156115bf57fe5b906020019060200201517effffffffffffffffffffffffffffffffffffffffffffffffffffffffffffff19168660018151811015156115fa57fe5b906020019060200201517effffffffffffffffffffffffffffffffffffffffffffffffffffffffffffff191610156116355760029750611744565b84600081518110151561164457fe5b906020019060200201517effffffffffffffffffffffffffffffffffffffffffffffffffffffffffffff191686600081518110151561167f57fe5b906020019060200201517effffffffffffffffffffffffffffffffffffffffffffffffffffffffffffff191611156116ba5760019750611744565b8460008151811015156116c957fe5b906020019060200201517effffffffffffffffffffffffffffffffffffffffffffffffffffffffffffff191686600081518110151561170457fe5b906020019060200201517effffffffffffffffffffffffffffffffffffffffffffffffffffffffffffff1916101561173f5760029750611744565b600397505b50505050505050919050565b600082821115151561175e57fe5b818303905092915050565b6000806000600560009054906101000a900473ffffffffffffffffffffffffffffffffffffffff1673ffffffffffffffffffffffffffffffffffffffff1614806117dd575060006117db600560009054906101000a900473ffffffffffffffffffffffffffffffffffffffff16611d0f565b145b156117ee576117ec6000611d1a565b505b600560009054906101000a900473ffffffffffffffffffffffffffffffffffffffff1673ffffffffffffffffffffffffffffffffffffffff166338cc48316040518163ffffffff167c0100000000000000000000000000000000000000000000000000000000028152600401602060405180830381600087803b15801561187457600080fd5b505af1158015611888573d6000803e3d6000fd5b505050506040513d602081101561189e57600080fd5b810190808051906020019092919050505073ffffffffffffffffffffffffffffffffffffffff16600660009054906101000a900473ffffffffffffffffffffffffffffffffffffffff1673ffffffffffffffffffffffffffffffffffffffff16141515611a0757600560009054906101000a900473ffffffffffffffffffffffffffffffffffffffff1673ffffffffffffffffffffffffffffffffffffffff166338cc48316040518163ffffffff167c0100000000000000000000000000000000000000000000000000000000028152600401602060405180830381600087803b15801561198b57600080fd5b505af115801561199f573d6000803e3d6000fd5b505050506040513d60208110156119b557600080fd5b8101908080519060200190929190505050600660006101000a81548173ffffffffffffffffffffffffffffffffffffffff021916908373ffffffffffffffffffffffffffffffffffffffff1602179055505b600660009054906101000a900473ffffffffffffffffffffffffffffffffffffffff1673ffffffffffffffffffffffffffffffffffffffff1663524f3889856040518263ffffffff167c01000000000000000000000000000000000000000000000000000000000281526004018080602001828103825283818151815260200191508051906020019080838360005b83811015611ab1578082015181840152602081019050611a96565b50505050905090810190601f168015611ade5780820380516001836020036101000a031916815260200191505b5092505050602060405180830381600087803b158015611afd57600080fd5b505af1158015611b11573d6000803e3d6000fd5b505050506040513d6020811015611b2757600080fd5b8101908080519060200190929190505050905062030d403a02670de0b6b3a764000001811115611b5d5760006001029150611d08565b600660009054906101000a900473ffffffffffffffffffffffffffffffffffffffff1673ffffffffffffffffffffffffffffffffffffffff1663adf59f9982600087876040518563ffffffff167c0100000000000000000000000000000000000000000000000000000000028152600401808481526020018060200180602001838103835285818151815260200191508051906020019080838360005b83811015611c15578082015181840152602081019050611bfa565b50505050905090810190601f168015611c425780820380516001836020036101000a031916815260200191505b50838103825284818151815260200191508051906020019080838360005b83811015611c7b578082015181840152602081019050611c60565b50505050905090810190601f168015611ca85780820380516001836020036101000a031916815260200191505b50955050505050506020604051808303818588803b158015611cc957600080fd5b505af1158015611cdd573d6000803e3d6000fd5b50505050506040513d6020811015611cf457600080fd5b810190808051906020019092919050505091505b5092915050565b6000813b9050919050565b6000611d24611d2b565b9050919050565b600080611d4b731d3b2638a7cc9f2cb3d298a3da7a90b67e5506ed611d0f565b1115611ded57731d3b2638a7cc9f2cb3d298a3da7a90b67e5506ed600560006101000a81548173ffffffffffffffffffffffffffffffffffffffff021916908373ffffffffffffffffffffffffffffffffffffffff160217905550611de46040805190810160405280600b81526020017f6574685f6d61696e6e65740000000000000000000000000000000000000000008152506121c1565b600190506121be565b6000611e0c73c03a2615d5efaf5f49f60b7bb6583eaec212fdf1611d0f565b1115611eae5773c03a2615d5efaf5f49f60b7bb6583eaec212fdf1600560006101000a81548173ffffffffffffffffffffffffffffffffffffffff021916908373ffffffffffffffffffffffffffffffffffffffff160217905550611ea56040805190810160405280600c81526020017f6574685f726f707374656e3300000000000000000000000000000000000000008152506121c1565b600190506121be565b6000611ecd73b7a07bcf2ba2f2703b24c0691b5278999c59ac7e611d0f565b1115611f6f5773b7a07bcf2ba2f2703b24c0691b5278999c59ac7e600560006101000a81548173ffffffffffffffffffffffffffffffffffffffff021916908373ffffffffffffffffffffffffffffffffffffffff160217905550611f666040805190810160405280600981526020017f6574685f6b6f76616e00000000000000000000000000000000000000000000008152506121c1565b600190506121be565b6000611f8e73146500cfd35b22e4a392fe0adc06de1a1368ed48611d0f565b11156120305773146500cfd35b22e4a392fe0adc06de1a1368ed48600560006101000a81548173ffffffffffffffffffffffffffffffffffffffff021916908373ffffffffffffffffffffffffffffffffffffffff1602179055506120276040805190810160405280600b81526020017f6574685f72696e6b6562790000000000000000000000000000000000000000008152506121c1565b600190506121be565b600061204f736f485c8bf6fc43ea212e93bbf8ce046c7f1cb475611d0f565b11156120b357736f485c8bf6fc43ea212e93bbf8ce046c7f1cb475600560006101000a81548173ffffffffffffffffffffffffffffffffffffffff021916908373ffffffffffffffffffffffffffffffffffffffff160217905550600190506121be565b60006120d27320e12a1f859b3feae5fb2a0a32c18f5a65555bbf611d0f565b1115612136577320e12a1f859b3feae5fb2a0a32c18f5a65555bbf600560006101000a81548173ffffffffffffffffffffffffffffffffffffffff021916908373ffffffffffffffffffffffffffffffffffffffff160217905550600190506121be565b60006121557351efaf4c8b3c9afbd5ab9f4bbc82784ab6ef8faa611d0f565b11156121b9577351efaf4c8b3c9afbd5ab9f4bbc82784ab6ef8faa600560006101000a81548173ffffffffffffffffffffffffffffffffffffffff021916908373ffffffffffffffffffffffffffffffffffffffff160217905550600190506121be565b600090505b90565b80600790805190602001906121d79291906121db565b5050565b828054600181600116156101000203166002900490600052602060002090601f016020900481019282601f1061221c57805160ff191683800117855561224a565b8280016001018555821561224a579182015b8281111561224957825182559160200191906001019061222e565b5b509050612257919061225b565b5090565b61227d91905b80821115612279576000816000905550600101612261565b5090565b90560068746d6c28687474703a2f2f7777772e666966612e636f6d2f776f726c646375702f6d6174636865732f726f756e643d3235353933312f6d617463683d3330303138363435362f696e6465782e68746d6c292e7870617468282f2f2a5b636f6e7461696e732840636c6173732c2022732d73636f72655465787422295d2f74657874282929a165627a7a723058208587c0a43a6a4e6eb88f61bd789f05bcfb8ee1d768f616ebe01cd6ce3686ff510029",
  "source": "pragma solidity ^0.4.18;\n\n\nimport \"./WolsukiBase.sol\";\nimport \"oraclize-api/usingOraclize.sol\";\n\n\n/// @title Valet contract for Wolsuki. Holds all functions and variables related to\n/// end a pool or house cleaning.\n/// @author Wolsuki (https://www.wolsuki.com)\ncontract WolsukiValet is WolsukiBase, usingOraclize {\n\n    /// @dev The FixtureEnded event is emitted whenever a fixture is ended.\n    event FixtureEnded(uint256 _fixtureId);\n\n\n    /// @dev this maps the oraclize query id to a fixture id. Only callback that matches\n    /// with a valid fixture id can be called.\n    mapping(bytes32 => uint256) private fixtureQueries;\n\n\n    /// @dev constructor function for WolsukiValet. Here we need to set authenticity proof\n    /// for random source from oraclize\n    function WolsukiValet() public {\n        // sets the Ledger authenticity proof in the constructor\n        oraclize_setProof(proofType_Ledger);\n    }\n\n    function endFixture(uint16 _fixtureId)\n        public\n        payable\n        onlyOwner\n    {\n        Fixture storage fixture = fixtures[_fixtureId];\n        // the fixture must still be opened\n        require(!fixture.ended && now > fixture.endedAt);\n\n        // this function internally generates the\n        bytes32 queryId = oraclize_query('URL', 'html(http://www.fifa.com/worldcup/matches/round=255931/match=300186456/index.html).xpath(//*[contains(@class, \"s-scoreText\")]/text())');\n\n        // maps this query to the ending pool\n        fixtureQueries[queryId] = _fixtureId;\n    }\n\n    /// @dev the callback function is called by Oraclize when the result is ready.\n    /// The fixture must still be opened for the pool to be properly ended.\n    /// Fixture's status will the set with the result from oraclize.\n    function __callback(bytes32 _queryId, string _result, bytes _proof)\n        public\n    {\n        require(msg.sender == oraclize_cbAddress());\n\n        uint256 fixtureId = fixtureQueries[_queryId];\n        Fixture storage fixture = fixtures[fixtureId];\n        // the fixture must still be opened.\n        require(!fixture.ended);\n\n        fixture.ended = true;\n        fixture.status = status(_result);\n        delete fixtureQueries[_queryId];\n\n        FixtureEnded(fixtureId);\n    }\n\n    function status(string score)\n        internal\n        pure\n        returns (uint8)\n    {\n        bytes memory scoreBytes = bytes(score);\n        bytes1[] memory homeBytes = new bytes1[](2);\n        bytes1[] memory awayBytes = new bytes1[](2);\n        uint8 homeCount = 0;\n        uint8 awayCount = 0;\n        uint8 count = 0;\n        bytes1 currentByte = scoreBytes[count];\n\n        while (currentByte != '-') {\n            homeBytes[homeCount] = (currentByte);\n            homeCount++;\n            count++;\n            currentByte = scoreBytes[count];\n        }\n\n        count++;\n        while(count < scoreBytes.length) {\n            currentByte = scoreBytes[count];\n            awayBytes[awayCount] = currentByte;\n            awayCount++;\n            count++;\n        }\n\n        if (homeBytes[1] > awayBytes[1])\n            return 1;\n        else if (homeBytes[1] < awayBytes[1])\n            return 2;\n        else if (homeBytes[0] > awayBytes[0])\n            return 1;\n        else if (homeBytes[0] < awayBytes[0])\n            return 2;\n\n        return 3;\n    }\n}\n",
  "sourcePath": "/Applications/MAMP/htdocs/WolsukiContract/contracts/WolsukiValet.sol",
  "compiler": {
    "name": "solc",
    "version": "0.4.23+commit.124ca40d.Emscripten.clang"
  },
  "schemaVersion": "2.0.0",
  "updatedAt": "2018-05-21T05:10:42.958Z"
}