{
  "contractName": "WolsukiFactory",
  "abi": [
    {
      "constant": true,
      "inputs": [],
      "name": "totalPayments",
      "outputs": [
        {
          "name": "",
          "type": "uint256"
        }
      ],
      "payable": false,
      "stateMutability": "view",
      "type": "function"
    },
    {
      "constant": false,
      "inputs": [],
      "name": "withdrawPayments",
      "outputs": [],
      "payable": false,
      "stateMutability": "nonpayable",
      "type": "function"
    },
    {
      "constant": true,
      "inputs": [
        {
          "name": "",
          "type": "uint256"
        }
      ],
      "name": "fixtures",
      "outputs": [
        {
          "name": "closedAt",
          "type": "uint256"
        },
        {
          "name": "endedAt",
          "type": "uint256"
        },
        {
          "name": "externalId",
          "type": "string"
        },
        {
          "name": "status",
          "type": "uint8"
        },
        {
          "name": "ended",
          "type": "bool"
        }
      ],
      "payable": false,
      "stateMutability": "view",
      "type": "function"
    },
    {
      "constant": true,
      "inputs": [
        {
          "name": "_poolId",
          "type": "uint256"
        }
      ],
      "name": "queryPlayers",
      "outputs": [
        {
          "name": "",
          "type": "address[]"
        }
      ],
      "payable": false,
      "stateMutability": "view",
      "type": "function"
    },
    {
      "constant": true,
      "inputs": [
        {
          "name": "_poolId",
          "type": "uint256"
        },
        {
          "name": "_player",
          "type": "address"
        }
      ],
      "name": "queryBetClaimed",
      "outputs": [
        {
          "name": "",
          "type": "bool"
        }
      ],
      "payable": false,
      "stateMutability": "view",
      "type": "function"
    },
    {
      "constant": true,
      "inputs": [],
      "name": "owner",
      "outputs": [
        {
          "name": "",
          "type": "address"
        }
      ],
      "payable": false,
      "stateMutability": "view",
      "type": "function"
    },
    {
      "constant": true,
      "inputs": [
        {
          "name": "",
          "type": "uint256"
        }
      ],
      "name": "pools",
      "outputs": [
        {
          "name": "host",
          "type": "address"
        },
        {
          "name": "fixtureId",
          "type": "uint256"
        },
        {
          "name": "hostBet",
          "type": "uint256"
        },
        {
          "name": "maxTotal",
          "type": "uint256"
        },
        {
          "name": "total",
          "type": "uint256"
        },
        {
          "name": "unlikelyOutcome",
          "type": "uint8"
        }
      ],
      "payable": false,
      "stateMutability": "view",
      "type": "function"
    },
    {
      "constant": true,
      "inputs": [
        {
          "name": "",
          "type": "address"
        }
      ],
      "name": "payments",
      "outputs": [
        {
          "name": "",
          "type": "uint256"
        }
      ],
      "payable": false,
      "stateMutability": "view",
      "type": "function"
    },
    {
      "constant": true,
      "inputs": [
        {
          "name": "_poolId",
          "type": "uint256"
        },
        {
          "name": "_player",
          "type": "address"
        }
      ],
      "name": "queryBetValue",
      "outputs": [
        {
          "name": "",
          "type": "uint256"
        }
      ],
      "payable": false,
      "stateMutability": "view",
      "type": "function"
    },
    {
      "constant": false,
      "inputs": [
        {
          "name": "newOwner",
          "type": "address"
        }
      ],
      "name": "transferOwnership",
      "outputs": [],
      "payable": false,
      "stateMutability": "nonpayable",
      "type": "function"
    },
    {
      "anonymous": false,
      "inputs": [
        {
          "indexed": false,
          "name": "_fixtureId",
          "type": "uint256"
        }
      ],
      "name": "FixtureOpened",
      "type": "event"
    },
    {
      "anonymous": false,
      "inputs": [
        {
          "indexed": true,
          "name": "previousOwner",
          "type": "address"
        },
        {
          "indexed": true,
          "name": "newOwner",
          "type": "address"
        }
      ],
      "name": "OwnershipTransferred",
      "type": "event"
    },
    {
      "constant": false,
      "inputs": [
        {
          "name": "_externalId",
          "type": "string"
        },
        {
          "name": "_closedAt",
          "type": "uint256"
        },
        {
          "name": "_endedAt",
          "type": "uint256"
        }
      ],
      "name": "createFixture",
      "outputs": [
        {
          "name": "",
          "type": "uint256"
        }
      ],
      "payable": false,
      "stateMutability": "nonpayable",
      "type": "function"
    }
  ],
  "bytecode": "0x6080604052336000806101000a81548173ffffffffffffffffffffffffffffffffffffffff021916908373ffffffffffffffffffffffffffffffffffffffff160217905550610df6806100536000396000f3006080604052600436106100ae576000357c0100000000000000000000000000000000000000000000000000000000900463ffffffff1680625b4487146100b35780634a6ae72f146100de5780636103d70b1461016f57806367bfef67146101865780637cbdc001146102525780638790af3e146102d45780638da5cb5b14610339578063ac4afa3814610390578063e2982c2114610426578063e6bae1ec1461047d578063f2fde38b146104de575b600080fd5b3480156100bf57600080fd5b506100c8610521565b6040518082815260200191505060405180910390f35b3480156100ea57600080fd5b50610159600480360381019080803590602001908201803590602001908080601f01602080910402602001604051908101604052809392919081815260200183838082843782019150505050505091929192908035906020019092919080359060200190929190505050610527565b6040518082815260200191505060405180910390f35b34801561017b57600080fd5b506101846106b7565b005b34801561019257600080fd5b506101b1600480360381019080803590602001909291905050506107d6565b60405180868152602001858152602001806020018460ff1660ff16815260200183151515158152602001828103825285818151815260200191508051906020019080838360005b838110156102135780820151818401526020810190506101f8565b50505050905090810190601f1680156102405780820380516001836020036101000a031916815260200191505b50965050505050505060405180910390f35b34801561025e57600080fd5b5061027d600480360381019080803590602001909291905050506108cd565b6040518080602001828103825283818151815260200191508051906020019060200280838360005b838110156102c05780820151818401526020810190506102a5565b505050509050019250505060405180910390f35b3480156102e057600080fd5b5061031f60048036038101908080359060200190929190803573ffffffffffffffffffffffffffffffffffffffff169060200190929190505050610981565b604051808215151515815260200191505060405180910390f35b34801561034557600080fd5b5061034e6109fb565b604051808273ffffffffffffffffffffffffffffffffffffffff1673ffffffffffffffffffffffffffffffffffffffff16815260200191505060405180910390f35b34801561039c57600080fd5b506103bb60048036038101908080359060200190929190505050610a20565b604051808773ffffffffffffffffffffffffffffffffffffffff1673ffffffffffffffffffffffffffffffffffffffff1681526020018681526020018581526020018481526020018381526020018260ff1660ff168152602001965050505050505060405180910390f35b34801561043257600080fd5b50610467600480360381019080803573ffffffffffffffffffffffffffffffffffffffff169060200190929190505050610a98565b6040518082815260200191505060405180910390f35b34801561048957600080fd5b506104c860048036038101908080359060200190929190803573ffffffffffffffffffffffffffffffffffffffff169060200190929190505050610ab0565b6040518082815260200191505060405180910390f35b3480156104ea57600080fd5b5061051f600480360381019080803573ffffffffffffffffffffffffffffffffffffffff169060200190929190505050610b82565b005b60025481565b6000610531610cf0565b60008060009054906101000a900473ffffffffffffffffffffffffffffffffffffffff1673ffffffffffffffffffffffffffffffffffffffff163373ffffffffffffffffffffffffffffffffffffffff1614151561058e57600080fd5b848411151561059c57600080fd5b60a060405190810160405280868152602001858152602001878152602001600060ff1681526020016000151581525091506001600383908060018154018082558091505090600182039060005260206000209060040201600090919290919091506000820151816000015560208201518160010155604082015181600201908051906020019061062d929190610d25565b5060608201518160030160006101000a81548160ff021916908360ff16021790555060808201518160030160016101000a81548160ff02191690831515021790555050500390507f8d293449f88091e84b3c37081ea356981776b935bf4b118c7a7126a2782c76a8816040518082815260200191505060405180910390a180925050509392505050565b600080339150600160008373ffffffffffffffffffffffffffffffffffffffff1673ffffffffffffffffffffffffffffffffffffffff1681526020019081526020016000205490506000811415151561070f57600080fd5b803073ffffffffffffffffffffffffffffffffffffffff16311015151561073557600080fd5b61074a81600254610cd790919063ffffffff16565b6002819055506000600160008473ffffffffffffffffffffffffffffffffffffffff1673ffffffffffffffffffffffffffffffffffffffff168152602001908152602001600020819055508173ffffffffffffffffffffffffffffffffffffffff166108fc829081150290604051600060405180830381858888f1935050505015156107d257fe5b5050565b6003818154811015156107e557fe5b9060005260206000209060040201600091509050806000015490806001015490806002018054600181600116156101000203166002900480601f01602080910402602001604051908101604052809291908181526020018280546001816001161561010002031660029004801561089d5780601f106108725761010080835404028352916020019161089d565b820191906000526020600020905b81548152906001019060200180831161088057829003601f168201915b5050505050908060030160009054906101000a900460ff16908060030160019054906101000a900460ff16905085565b606060006004838154811015156108e057fe5b906000526020600020906009020190508060020180548060200260200160405190810160405280929190818152602001828054801561097457602002820191906000526020600020905b8160009054906101000a900473ffffffffffffffffffffffffffffffffffffffff1673ffffffffffffffffffffffffffffffffffffffff168152602001906001019080831161092a575b5050505050915050919050565b60008060048481548110151561099357fe5b906000526020600020906009020190508060010160008473ffffffffffffffffffffffffffffffffffffffff1673ffffffffffffffffffffffffffffffffffffffff16815260200190815260200160002060009054906101000a900460ff1691505092915050565b6000809054906101000a900473ffffffffffffffffffffffffffffffffffffffff1681565b600481815481101515610a2f57fe5b90600052602060002090600902016000915090508060030160009054906101000a900473ffffffffffffffffffffffffffffffffffffffff16908060040154908060050154908060060154908060070154908060080160009054906101000a900460ff16905086565b60016020528060005260406000206000915090505481565b600080600484815481101515610ac257fe5b906000526020600020906009020190508060030160009054906101000a900473ffffffffffffffffffffffffffffffffffffffff1673ffffffffffffffffffffffffffffffffffffffff168373ffffffffffffffffffffffffffffffffffffffff161415610b365780600501549150610b7b565b8060000160008473ffffffffffffffffffffffffffffffffffffffff1673ffffffffffffffffffffffffffffffffffffffff1681526020019081526020016000205491505b5092915050565b6000809054906101000a900473ffffffffffffffffffffffffffffffffffffffff1673ffffffffffffffffffffffffffffffffffffffff163373ffffffffffffffffffffffffffffffffffffffff16141515610bdd57600080fd5b600073ffffffffffffffffffffffffffffffffffffffff168173ffffffffffffffffffffffffffffffffffffffff1614151515610c1957600080fd5b8073ffffffffffffffffffffffffffffffffffffffff166000809054906101000a900473ffffffffffffffffffffffffffffffffffffffff1673ffffffffffffffffffffffffffffffffffffffff167f8be0079c531659141344cd1fd0a4f28419497f9722a3daafe3b4186f6b6457e060405160405180910390a3806000806101000a81548173ffffffffffffffffffffffffffffffffffffffff021916908373ffffffffffffffffffffffffffffffffffffffff16021790555050565b6000828211151515610ce557fe5b818303905092915050565b60a060405190810160405280600081526020016000815260200160608152602001600060ff1681526020016000151581525090565b828054600181600116156101000203166002900490600052602060002090601f016020900481019282601f10610d6657805160ff1916838001178555610d94565b82800160010185558215610d94579182015b82811115610d93578251825591602001919060010190610d78565b5b509050610da19190610da5565b5090565b610dc791905b80821115610dc3576000816000905550600101610dab565b5090565b905600a165627a7a72305820701834de7b566c69c9bad569ba1412ebe9b3ea487396d4ab8b7132c30d7025940029",
  "source": "pragma solidity ^0.4.18;\n\n\nimport \"./WolsukiBase.sol\";\n\n\n/// @title Factory Contract for GateKeeper. Holds all functions related to opening a new fixture.\n/// @author Wolsuki (https://www.pulsuki.com)\ncontract WolsukiFactory is WolsukiBase {\n\n    /// @dev The FixtureOpened event is emitted whenever a new fixture is created.\n    event FixtureOpened(uint256 _fixtureId);\n\n\n    /// @dev only owner can call this function. When a new fixture is created, its\n    /// ended variable is set to false, which means the fixture is opened.\n    /// @param _externalId id of the fixture on FIFA website.\n    /// This is used to make request to FIFA's fixture page to fetch result.\n    /// @return index of newly opened / created fixture in the fixture list\n    function createFixture(string _externalId, uint256 _closedAt, uint256 _endedAt)\n        public\n        onlyOwner\n        returns(uint256)\n    {\n        // Fixture should be closed before it is ended. That means no pools are allowed\n        // to be created and no players are allowed to place bets before the fixture is\n        // on going.\n        require(_endedAt > _closedAt);\n\n        // @dev the default status is 0 but this does not matter as long as the fixture is opened.\n        // One should always check if the fixture is ended to know that the status is final.\n        Fixture memory newFixture = Fixture({\n            closedAt: _closedAt,\n            endedAt: _endedAt,\n            externalId: _externalId,\n            status: 0, // the outcome by default is 0\n            ended: false // the pool is opened when it's created\n        });\n\n        // adds newly created fixture to the fixture list\n        uint256 newFixtureId = fixtures.push(newFixture) - 1;\n\n        // emit the fixture opened event with the fixture's id\n        FixtureOpened(newFixtureId);\n\n        return newFixtureId;\n    }\n}\n",
  "sourcePath": "/Applications/MAMP/htdocs/WolsukiContract/contracts/WolsukiFactory.sol",
  "compiler": {
    "name": "solc",
    "version": "0.4.23+commit.124ca40d.Emscripten.clang"
  },
  "schemaVersion": "2.0.0",
  "updatedAt": "2018-05-21T05:10:42.950Z"
}